{
  "address": "0xD3690FF87908907a3Bc6638bb73b0E8c905A7c7F",
  "abi": [
    {
      "inputs": [
        {
          "internalType": "address",
          "name": "_messageBus",
          "type": "address"
        }
      ],
      "stateMutability": "nonpayable",
      "type": "constructor"
    },
    {
      "anonymous": false,
      "inputs": [
        {
          "indexed": false,
          "internalType": "bytes32",
          "name": "transferId",
          "type": "bytes32"
        },
        {
          "indexed": false,
          "internalType": "address",
          "name": "sender",
          "type": "address"
        },
        {
          "indexed": false,
          "internalType": "address",
          "name": "token",
          "type": "address"
        },
        {
          "indexed": false,
          "internalType": "uint256",
          "name": "amount",
          "type": "uint256"
        },
        {
          "indexed": false,
          "internalType": "uint64",
          "name": "toChain",
          "type": "uint64"
        }
      ],
      "name": "CrossChain",
      "type": "event"
    },
    {
      "anonymous": false,
      "inputs": [
        {
          "indexed": false,
          "internalType": "bytes32",
          "name": "transferId",
          "type": "bytes32"
        }
      ],
      "name": "Send",
      "type": "event"
    },
    {
      "anonymous": false,
      "inputs": [
        {
          "indexed": false,
          "internalType": "address",
          "name": "sender",
          "type": "address"
        },
        {
          "indexed": false,
          "internalType": "address",
          "name": "token",
          "type": "address"
        },
        {
          "indexed": false,
          "internalType": "uint256",
          "name": "amount",
          "type": "uint256"
        }
      ],
      "name": "Transfer2Address",
      "type": "event"
    },
    {
      "stateMutability": "payable",
      "type": "fallback"
    },
    {
      "inputs": [
        {
          "internalType": "address",
          "name": "_sender",
          "type": "address"
        },
        {
          "internalType": "address",
          "name": "_token",
          "type": "address"
        },
        {
          "internalType": "uint256",
          "name": "_amount",
          "type": "uint256"
        },
        {
          "internalType": "uint64",
          "name": "_srcChainId",
          "type": "uint64"
        },
        {
          "internalType": "bytes",
          "name": "_message",
          "type": "bytes"
        },
        {
          "internalType": "address",
          "name": "",
          "type": "address"
        }
      ],
      "name": "executeMessageWithTransfer",
      "outputs": [
        {
          "internalType": "enum IBaseStruct.ExecutionStatus",
          "name": "",
          "type": "uint8"
        }
      ],
      "stateMutability": "nonpayable",
      "type": "function"
    },
    {
      "inputs": [
        {
          "internalType": "address",
          "name": "_sender",
          "type": "address"
        },
        {
          "internalType": "address",
          "name": "_token",
          "type": "address"
        },
        {
          "internalType": "uint256",
          "name": "_amount",
          "type": "uint256"
        },
        {
          "internalType": "uint64",
          "name": "_srcChainId",
          "type": "uint64"
        },
        {
          "internalType": "bytes",
          "name": "_message",
          "type": "bytes"
        },
        {
          "internalType": "address",
          "name": "",
          "type": "address"
        }
      ],
      "name": "executeMessageWithTransferFallback",
      "outputs": [
        {
          "internalType": "enum IBaseStruct.ExecutionStatus",
          "name": "",
          "type": "uint8"
        }
      ],
      "stateMutability": "payable",
      "type": "function"
    },
    {
      "inputs": [
        {
          "internalType": "address",
          "name": "_sender",
          "type": "address"
        },
        {
          "internalType": "uint64",
          "name": "_srcChainId",
          "type": "uint64"
        },
        {
          "internalType": "bytes",
          "name": "_message",
          "type": "bytes"
        },
        {
          "internalType": "address",
          "name": "",
          "type": "address"
        }
      ],
      "name": "executeMessageWithTransferRefund",
      "outputs": [
        {
          "internalType": "enum IBaseStruct.ExecutionStatus",
          "name": "",
          "type": "uint8"
        }
      ],
      "stateMutability": "payable",
      "type": "function"
    },
    {
      "inputs": [
        {
          "components": [
            {
              "internalType": "bool",
              "name": "back",
              "type": "bool"
            },
            {
              "internalType": "uint32",
              "name": "maxSlippage",
              "type": "uint32"
            },
            {
              "internalType": "address",
              "name": "to",
              "type": "address"
            }
          ],
          "internalType": "struct IBaseStruct.TransferData",
          "name": "_data",
          "type": "tuple"
        }
      ],
      "name": "getFee",
      "outputs": [
        {
          "internalType": "uint256",
          "name": "_fee",
          "type": "uint256"
        },
        {
          "internalType": "bytes",
          "name": "_sendData",
          "type": "bytes"
        }
      ],
      "stateMutability": "view",
      "type": "function"
    },
    {
      "inputs": [],
      "name": "messageBus",
      "outputs": [
        {
          "internalType": "address",
          "name": "",
          "type": "address"
        }
      ],
      "stateMutability": "view",
      "type": "function"
    },
    {
      "inputs": [
        {
          "internalType": "address",
          "name": "_receiver",
          "type": "address"
        },
        {
          "internalType": "address",
          "name": "_token",
          "type": "address"
        },
        {
          "internalType": "uint256",
          "name": "_amount",
          "type": "uint256"
        },
        {
          "internalType": "uint64",
          "name": "_dstChainId",
          "type": "uint64"
        },
        {
          "internalType": "uint32",
          "name": "_maxSlippage",
          "type": "uint32"
        }
      ],
      "name": "send",
      "outputs": [],
      "stateMutability": "payable",
      "type": "function"
    },
    {
      "inputs": [],
      "name": "transfer",
      "outputs": [
        {
          "internalType": "bool",
          "name": "back",
          "type": "bool"
        },
        {
          "internalType": "uint32",
          "name": "maxSlippage",
          "type": "uint32"
        },
        {
          "internalType": "address",
          "name": "to",
          "type": "address"
        }
      ],
      "stateMutability": "view",
      "type": "function"
    },
    {
      "inputs": [],
      "name": "transfer2",
      "outputs": [
        {
          "internalType": "bool",
          "name": "back",
          "type": "bool"
        },
        {
          "internalType": "uint32",
          "name": "maxSlippage",
          "type": "uint32"
        },
        {
          "internalType": "address",
          "name": "to",
          "type": "address"
        }
      ],
      "stateMutability": "view",
      "type": "function"
    },
    {
      "stateMutability": "payable",
      "type": "receive"
    }
  ],
  "transactionHash": "0x42eced8398ab00e28aff03db004416212fc37daba6515c31ff01aa97c832647a",
  "args": [
    "0xAd204986D6cB67A5Bc76a3CB8974823F43Cb9AAA"
  ],
  "numDeployments": 1,
  "solcInputHash": "486f0ec9fbbfed8dc3ee019241e46b6a",
  "bytecode": "0x60a060405234801561001057600080fd5b50604051611abd380380611abd83398101604081905261002f91610040565b6001600160a01b0316608052610070565b60006020828403121561005257600080fd5b81516001600160a01b038116811461006957600080fd5b9392505050565b608051611a0f6100ae600039600081816101c8015281816102a1015281816103190152818161043d015281816104d6015261054e0152611a0f6000f3fe6080604052600436106100795760003560e01c80637cd2bffc1161004b5780637cd2bffc1461014b5780638a4068dd1461016b57806397a5529a146101a3578063a1a227fa146101b657005b8063248c44e81461008257806331096f44146100ea5780635ab7afc6146100fd5780636bf701641461011d57005b3661008057005b005b34801561008e57600080fd5b506001546100ba9060ff811690610100810463ffffffff1690600160281b90046001600160a01b031683565b60408051931515845263ffffffff90921660208401526001600160a01b0316908201526060015b60405180910390f35b6100806100f836600461142a565b610202565b61011061010b36600461155c565b61030c565b6040516100e19190611602565b34801561012957600080fd5b5061013d610138366004611638565b6103dc565b6040516100e19291906116e4565b34801561015757600080fd5b506101106101663660046116fd565b6104c9565b34801561017757600080fd5b506000546100ba9060ff811690610100810463ffffffff1690600160281b90046001600160a01b031683565b6101106101b13660046117c0565b610541565b3480156101c257600080fd5b506101ea7f000000000000000000000000000000000000000000000000000000000000000081565b6040516001600160a01b0390911681526020016100e1565b6102176001600160a01b03851633308661060f565b604080516060810182526001815263ffffffff831660208201523391810191909152600080610245836103dc565b91509150813410156102915760405162461bcd60e51b815260206004820152601060248201526f496e73756666696369656e742066656560801b60448201526064015b60405180910390fd5b60006102c689898989428a8860017f00000000000000000000000000000000000000000000000000000000000000008c610680565b90507f086a0b34f7ece83090c3c5316bf102eec3c65cfd255dc74a383b55e19eb539ac816040516102f991815260200190565b60405180910390a1505050505050505050565b6000336001600160a01b037f000000000000000000000000000000000000000000000000000000000000000016146103565760405162461bcd60e51b815260040161028890611833565b60008380602001905181019061036c919061186a565b80516000805460208401516040909401516001600160a01b0316600160281b0265010000000000600160c81b031963ffffffff9095166101000264ffffffff00199415159490941664ffffffffff1990921691909117929092179290921617905550600190509695505050505050565b604080518251151560208083019190915283015163ffffffff1681830152908201516001600160a01b031660608281019190915260009160800160408051601f198184030181529082905263299aee5160e11b825291506001600160a01b037f00000000000000000000000000000000000000000000000000000000000000001690635335dca2906104729084906004016118b2565b60206040518083038186803b15801561048a57600080fd5b505afa15801561049e573d6000803e3d6000fd5b505050506040513d601f19601f820116820180604052508101906104c291906118c5565b9150915091565b6000336001600160a01b037f000000000000000000000000000000000000000000000000000000000000000016146105135760405162461bcd60e51b815260040161028890611833565b60405162461bcd60e51b815260206004820152600360248201526261616160e81b6044820152606401610288565b6000336001600160a01b037f0000000000000000000000000000000000000000000000000000000000000000161461058b5760405162461bcd60e51b815260040161028890611833565b6000838060200190518101906105a1919061186a565b80516000805460208401516040909401516001600160a01b0316600160281b0265010000000000600160c81b031963ffffffff9095166101000264ffffffff00199415159490941664ffffffffff199092169190911792909217929092161790555060019050949350505050565b6040516001600160a01b038085166024830152831660448201526064810182905261067a9085906323b872dd60e01b906084015b60408051601f198184030181529190526020810180516001600160e01b03166001600160e01b031990931692909217909152610719565b50505050565b60008060006106958d8d8d8d8d8d8c8c6107f0565b885191935091501561070957846001600160a01b0316634289fbb3858f8d85878d6040518763ffffffff1660e01b81526004016106d69594939291906118de565b6000604051808303818588803b1580156106ef57600080fd5b505af1158015610703573d6000803e3d6000fd5b50505050505b509b9a5050505050505050505050565b600061076e826040518060400160405280602081526020017f5361666545524332303a206c6f772d6c6576656c2063616c6c206661696c6564815250856001600160a01b0316610f849092919063ffffffff16565b8051909150156107eb578080602001905181019061078c9190611921565b6107eb5760405162461bcd60e51b815260206004820152602a60248201527f5361666545524332303a204552433230206f7065726174696f6e20646964206e6044820152691bdd081cdd58d8d9595960b21b6064820152608401610288565b505050565b6000806001846006811115610807576108076115ec565b141561093657826001600160a01b03166382980dc46040518163ffffffff1660e01b815260040160206040518083038186803b15801561084657600080fd5b505afa15801561085a573d6000803e3d6000fd5b505050506040513d601f19601f8201168201806040525081019061087e919061193e565b90506108946001600160a01b038a16828a610f9d565b60405163a5977fbb60e01b81526001600160a01b038b811660048301528a81166024830152604482018a905267ffffffffffffffff808a1660648401528816608483015263ffffffff871660a483015282169063a5977fbb9060c401600060405180830381600087803b15801561090a57600080fd5b505af115801561091e573d6000803e3d6000fd5b5050505061092f8a8a8a8a8a61105e565b9150610f77565b600284600681111561094a5761094a6115ec565b1415610a4a57826001600160a01b031663d8257d176040518163ffffffff1660e01b815260040160206040518083038186803b15801561098957600080fd5b505afa15801561099d573d6000803e3d6000fd5b505050506040513d601f19601f820116820180604052508101906109c1919061193e565b90506109d76001600160a01b038a16828a610f9d565b806001600160a01b031663234636248a8a8a8e8b6040518663ffffffff1660e01b8152600401610a0b95949392919061195b565b600060405180830381600087803b158015610a2557600080fd5b505af1158015610a39573d6000803e3d6000fd5b5050505061092f8a8a8a8a8a6110e1565b6003846006811115610a5e57610a5e6115ec565b1415610bf057826001600160a01b031663dfa2dbaf6040518163ffffffff1660e01b815260040160206040518083038186803b158015610a9d57600080fd5b505afa158015610ab1573d6000803e3d6000fd5b505050506040513d601f19601f82011682018060405250810190610ad5919061193e565b9050610aeb6001600160a01b038a16828a610f9d565b604051636f3c863f60e11b81526001600160a01b038a81166004830152602482018a90528b8116604483015267ffffffffffffffff8816606483015282169063de790c7e90608401600060405180830381600087803b158015610b4d57600080fd5b505af1158015610b61573d6000803e3d6000fd5b50610b7b925050506001600160a01b038a1682600061114a565b604080516001600160601b031930606090811b82166020808501919091528d821b83166034850152604884018d9052908e901b90911660688301526001600160c01b031960c08a811b8216607c85015246901b1660848301528251808303606c018152608c909201909252805191012061092f565b6004846006811115610c0457610c046115ec565b1415610d1757826001600160a01b031663c66a9c5a6040518163ffffffff1660e01b815260040160206040518083038186803b158015610c4357600080fd5b505afa158015610c57573d6000803e3d6000fd5b505050506040513d601f19601f82011682018060405250810190610c7b919061193e565b9050610c916001600160a01b038a16828a610f9d565b806001600160a01b031663234636248a8a8a8e8b6040518663ffffffff1660e01b8152600401610cc595949392919061195b565b602060405180830381600087803b158015610cdf57600080fd5b505af1158015610cf3573d6000803e3d6000fd5b505050506040513d601f19601f8201168201806040525081019061092f91906118c5565b6005846006811115610d2b57610d2b6115ec565b1415610e5a57826001600160a01b03166395b12c276040518163ffffffff1660e01b815260040160206040518083038186803b158015610d6a57600080fd5b505afa158015610d7e573d6000803e3d6000fd5b505050506040513d601f19601f82011682018060405250810190610da2919061193e565b9050610db86001600160a01b038a16828a610f9d565b806001600160a01b031663a00293018a8a8a8e8b6040518663ffffffff1660e01b8152600401610dec95949392919061195b565b602060405180830381600087803b158015610e0657600080fd5b505af1158015610e1a573d6000803e3d6000fd5b505050506040513d601f19601f82011682018060405250810190610e3e91906118c5565b9150610e556001600160a01b038a1682600061114a565b610f77565b6006846006811115610e6e57610e6e6115ec565b1415610f2f57826001600160a01b03166395b12c276040518163ffffffff1660e01b815260040160206040518083038186803b158015610ead57600080fd5b505afa158015610ec1573d6000803e3d6000fd5b505050506040513d601f19601f82011682018060405250810190610ee5919061193e565b9050610efb6001600160a01b038a16828a610f9d565b806001600160a01b0316639e422c338a8a8a8e8b6040518663ffffffff1660e01b8152600401610dec95949392919061195b565b60405162461bcd60e51b815260206004820152601960248201527f6272696467652074797065206e6f7420737570706f72746564000000000000006044820152606401610288565b9850989650505050505050565b6060610f93848460008561126e565b90505b9392505050565b604051636eb1769f60e11b81523060048201526001600160a01b038381166024830152600091839186169063dd62ed3e9060440160206040518083038186803b158015610fe957600080fd5b505afa158015610ffd573d6000803e3d6000fd5b505050506040513d601f19601f8201168201806040525081019061102191906118c5565b61102b9190611997565b6040516001600160a01b03851660248201526044810182905290915061067a90859063095ea7b360e01b90606401610643565b6040516001600160601b031930606090811b8216602084015287811b8216603484015286901b166048820152605c81018490526001600160c01b031960c084811b8216607c84015283811b8216608484015246901b16608c8201526000906094015b60405160208183030381529060405280519060200120905095945050505050565b6040516001600160601b031930606090811b8216602084015286811b82166034840152604883018690526001600160c01b031960c086811b821660688601529189901b909216607084015283811b8216608484015246901b16608c8201526000906094016110c0565b8015806111d35750604051636eb1769f60e11b81523060048201526001600160a01b03838116602483015284169063dd62ed3e9060440160206040518083038186803b15801561119957600080fd5b505afa1580156111ad573d6000803e3d6000fd5b505050506040513d601f19601f820116820180604052508101906111d191906118c5565b155b61123e5760405162461bcd60e51b815260206004820152603660248201527f5361666545524332303a20617070726f76652066726f6d206e6f6e2d7a65726f60448201527520746f206e6f6e2d7a65726f20616c6c6f77616e636560501b6064820152608401610288565b6040516001600160a01b0383166024820152604481018290526107eb90849063095ea7b360e01b90606401610643565b6060824710156112cf5760405162461bcd60e51b815260206004820152602660248201527f416464726573733a20696e73756666696369656e742062616c616e636520666f6044820152651c8818d85b1b60d21b6064820152608401610288565b6001600160a01b0385163b6113265760405162461bcd60e51b815260206004820152601d60248201527f416464726573733a2063616c6c20746f206e6f6e2d636f6e74726163740000006044820152606401610288565b600080866001600160a01b0316858760405161134291906119bd565b60006040518083038185875af1925050503d806000811461137f576040519150601f19603f3d011682016040523d82523d6000602084013e611384565b606091505b509150915061139482828661139f565b979650505050505050565b606083156113ae575081610f96565b8251156113be5782518084602001fd5b8160405162461bcd60e51b815260040161028891906118b2565b6001600160a01b03811681146113ed57600080fd5b50565b80356113fb816113d8565b919050565b803567ffffffffffffffff811681146113fb57600080fd5b63ffffffff811681146113ed57600080fd5b600080600080600060a0868803121561144257600080fd5b853561144d816113d8565b9450602086013561145d816113d8565b93506040860135925061147260608701611400565b9150608086013561148281611418565b809150509295509295909350565b634e487b7160e01b600052604160045260246000fd5b6040516060810167ffffffffffffffff811182821017156114c9576114c9611490565b60405290565b600082601f8301126114e057600080fd5b813567ffffffffffffffff808211156114fb576114fb611490565b604051601f8301601f19908116603f0116810190828211818310171561152357611523611490565b8160405283815286602085880101111561153c57600080fd5b836020870160208301376000602085830101528094505050505092915050565b60008060008060008060c0878903121561157557600080fd5b8635611580816113d8565b95506020870135611590816113d8565b9450604087013593506115a560608801611400565b9250608087013567ffffffffffffffff8111156115c157600080fd5b6115cd89828a016114cf565b92505060a08701356115de816113d8565b809150509295509295509295565b634e487b7160e01b600052602160045260246000fd5b602081016003831061162457634e487b7160e01b600052602160045260246000fd5b91905290565b80151581146113ed57600080fd5b60006060828403121561164a57600080fd5b6116526114a6565b823561165d8161162a565b8152602083013561166d81611418565b60208201526040830135611680816113d8565b60408201529392505050565b60005b838110156116a757818101518382015260200161168f565b8381111561067a5750506000910152565b600081518084526116d081602086016020860161168c565b601f01601f19169290920160200192915050565b828152604060208201526000610f9360408301846116b8565b600080600080600080600060c0888a03121561171857600080fd5b8735611723816113d8565b96506020880135611733816113d8565b95506040880135945061174860608901611400565b9350608088013567ffffffffffffffff8082111561176557600080fd5b818a0191508a601f83011261177957600080fd5b81358181111561178857600080fd5b8b602082850101111561179a57600080fd5b6020830195508094505050506117b260a089016113f0565b905092959891949750929550565b600080600080608085870312156117d657600080fd5b84356117e1816113d8565b93506117ef60208601611400565b9250604085013567ffffffffffffffff81111561180b57600080fd5b611817878288016114cf565b9250506060850135611828816113d8565b939692955090935050565b60208082526019908201527f63616c6c6572206973206e6f74206d6573736167652062757300000000000000604082015260600190565b60006060828403121561187c57600080fd5b6118846114a6565b825161188f8161162a565b8152602083015161189f81611418565b60208201526040830151611680816113d8565b602081526000610f9660208301846116b8565b6000602082840312156118d757600080fd5b5051919050565b6001600160a01b03868116825267ffffffffffffffff86166020830152841660408201526060810183905260a060808201819052600090611394908301846116b8565b60006020828403121561193357600080fd5b8151610f968161162a565b60006020828403121561195057600080fd5b8151610f96816113d8565b6001600160a01b039586168152602081019490945267ffffffffffffffff92831660408501529316606083015291909116608082015260a00190565b600082198211156119b857634e487b7160e01b600052601160045260246000fd5b500190565b600082516119cf81846020870161168c565b919091019291505056fea2646970667358221220731f55a3d7beedc7d90de3434e0612a93d49245bffabba66c43111c787b3ee9964736f6c63430008090033",
  "devdoc": {
    "kind": "dev",
    "methods": {},
    "version": 1
  },
  "userdoc": {
    "kind": "user",
    "methods": {},
    "version": 1
  },
  "storageLayout": {
    "storage": [
      {
        "astId": 1824,
        "contract": "contracts/Demo.sol:Demo",
        "label": "transfer",
        "offset": 0,
        "slot": "0",
        "type": "t_struct(TransferData)749_storage"
      },
      {
        "astId": 1861,
        "contract": "contracts/Demo.sol:Demo",
        "label": "transfer2",
        "offset": 0,
        "slot": "1",
        "type": "t_struct(TransferData)749_storage"
      }
    ],
    "types": {
      "t_address": {
        "encoding": "inplace",
        "label": "address",
        "numberOfBytes": "20"
      },
      "t_bool": {
        "encoding": "inplace",
        "label": "bool",
        "numberOfBytes": "1"
      },
      "t_struct(TransferData)749_storage": {
        "encoding": "inplace",
        "label": "struct IBaseStruct.TransferData",
        "members": [
          {
            "astId": 744,
            "contract": "contracts/Demo.sol:Demo",
            "label": "back",
            "offset": 0,
            "slot": "0",
            "type": "t_bool"
          },
          {
            "astId": 746,
            "contract": "contracts/Demo.sol:Demo",
            "label": "maxSlippage",
            "offset": 1,
            "slot": "0",
            "type": "t_uint32"
          },
          {
            "astId": 748,
            "contract": "contracts/Demo.sol:Demo",
            "label": "to",
            "offset": 5,
            "slot": "0",
            "type": "t_address"
          }
        ],
        "numberOfBytes": "32"
      },
      "t_uint32": {
        "encoding": "inplace",
        "label": "uint32",
        "numberOfBytes": "4"
      }
    }
  }
}