{
  "address": "0x8C4F1E5D5e12ca44E6eB5cFf5F827f1DBD0fB1B5",
  "abi": [
    {
      "inputs": [
        {
          "internalType": "address",
          "name": "_messageBus",
          "type": "address"
        }
      ],
      "stateMutability": "nonpayable",
      "type": "constructor"
    },
    {
      "stateMutability": "payable",
      "type": "fallback"
    },
    {
      "inputs": [
        {
          "internalType": "address",
          "name": "_sender",
          "type": "address"
        },
        {
          "internalType": "address",
          "name": "_token",
          "type": "address"
        },
        {
          "internalType": "uint256",
          "name": "_amount",
          "type": "uint256"
        },
        {
          "internalType": "uint64",
          "name": "_srcChainId",
          "type": "uint64"
        },
        {
          "internalType": "bytes",
          "name": "_message",
          "type": "bytes"
        }
      ],
      "name": "executeMessageWithTransferFallback",
      "outputs": [
        {
          "internalType": "enum IBatchTransfer.ExecutionStatus",
          "name": "",
          "type": "uint8"
        }
      ],
      "stateMutability": "payable",
      "type": "function"
    },
    {
      "inputs": [
        {
          "internalType": "address",
          "name": "",
          "type": "address"
        },
        {
          "internalType": "uint256",
          "name": "",
          "type": "uint256"
        },
        {
          "internalType": "bytes",
          "name": "_message",
          "type": "bytes"
        }
      ],
      "name": "executeMessageWithTransferRefund",
      "outputs": [
        {
          "internalType": "enum IBatchTransfer.ExecutionStatus",
          "name": "",
          "type": "uint8"
        }
      ],
      "stateMutability": "payable",
      "type": "function"
    },
    {
      "inputs": [
        {
          "internalType": "uint256",
          "name": "_dataAmount",
          "type": "uint256"
        }
      ],
      "name": "getFee",
      "outputs": [
        {
          "internalType": "uint256",
          "name": "",
          "type": "uint256"
        },
        {
          "internalType": "bytes",
          "name": "",
          "type": "bytes"
        }
      ],
      "stateMutability": "view",
      "type": "function"
    },
    {
      "inputs": [],
      "name": "messageBus",
      "outputs": [
        {
          "internalType": "address",
          "name": "",
          "type": "address"
        }
      ],
      "stateMutability": "view",
      "type": "function"
    },
    {
      "inputs": [
        {
          "internalType": "address",
          "name": "_receiver",
          "type": "address"
        },
        {
          "internalType": "address",
          "name": "_token",
          "type": "address"
        },
        {
          "internalType": "uint256",
          "name": "_amount",
          "type": "uint256"
        },
        {
          "internalType": "uint64",
          "name": "_dstChainId",
          "type": "uint64"
        },
        {
          "internalType": "uint32",
          "name": "_maxSlippage",
          "type": "uint32"
        },
        {
          "internalType": "uint256",
          "name": "_dataAmount",
          "type": "uint256"
        }
      ],
      "name": "send",
      "outputs": [],
      "stateMutability": "payable",
      "type": "function"
    },
    {
      "inputs": [],
      "name": "transfer",
      "outputs": [
        {
          "internalType": "uint64",
          "name": "nonce",
          "type": "uint64"
        },
        {
          "internalType": "address",
          "name": "sender",
          "type": "address"
        }
      ],
      "stateMutability": "view",
      "type": "function"
    },
    {
      "inputs": [],
      "name": "transfer2",
      "outputs": [
        {
          "internalType": "uint64",
          "name": "nonce",
          "type": "uint64"
        },
        {
          "internalType": "address",
          "name": "sender",
          "type": "address"
        }
      ],
      "stateMutability": "view",
      "type": "function"
    },
    {
      "stateMutability": "payable",
      "type": "receive"
    }
  ],
  "transactionHash": "0xed33c67600f615e3da885c135bf89557599051664221988746db8ea011dd3fdb",
  "args": [
    "0x7d43AABC515C356145049227CeE54B608342c0ad"
  ],
  "numDeployments": 1,
  "solcInputHash": "c3794de10fbff0e9299fa6b498de6e88",
  "bytecode": "0x60a060405234801561001057600080fd5b50604051611c3e380380611c3e83398101604081905261002f91610040565b6001600160a01b0316608052610070565b60006020828403121561005257600080fd5b81516001600160a01b038116811461006957600080fd5b9392505050565b608051611b976100a760003960008181610133015281816101ce0152818161034e0152818161038b01526104da0152611b976000f3fe60806040526004361061006e5760003560e01c8063a1a227fa1161004b578063a1a227fa14610121578063bfa61d7f1461016d578063f00f39ce14610180578063fcee45f41461019357005b806320be95f214610077578063248c44e8146100a05780638a4068dd146100f457005b3661007557005b005b61008a61008536600461140c565b6101c1565b60405161009791906114aa565b60405180910390f35b3480156100ac57600080fd5b506004546007546100cd916001600160401b0316906001600160a01b031682565b604080516001600160401b0390931683526001600160a01b03909116602083015201610097565b34801561010057600080fd5b506000546003546100cd916001600160401b0316906001600160a01b031682565b34801561012d57600080fd5b506101557f000000000000000000000000000000000000000000000000000000000000000081565b6040516001600160a01b039091168152602001610097565b61007561017b3660046114e7565b6102d9565b61008a61018e3660046115ce565b61037e565b34801561019f57600080fd5b506101b36101ae3660046116a4565b61049a565b604051610097929190611715565b6000336001600160a01b037f0000000000000000000000000000000000000000000000000000000000000000161461023c5760405162461bcd60e51b815260206004820152601960248201527863616c6c6572206973206e6f74206d6573736167652062757360381b60448201526064015b60405180910390fd5b600061024a838501856117bc565b80516000805467ffffffffffffffff19166001600160401b039092169190911781556020808301518051939450849361028792600192019061132f565b50604082015180516102a3916002840191602090910190611394565b5060609190910151600390910180546001600160a01b0319166001600160a01b0390921691909117905550600195945050505050565b6102ee6001600160a01b038616333087610568565b6000806102fa8361049a565b915091508134116103405760405162461bcd60e51b815260206004820152601060248201526f496e73756666696369656e742066656560801b6044820152606401610233565b6103738888888842898760017f00000000000000000000000000000000000000000000000000000000000000008b6105d9565b505050505050505050565b6000336001600160a01b037f000000000000000000000000000000000000000000000000000000000000000016146103f45760405162461bcd60e51b815260206004820152601960248201527863616c6c6572206973206e6f74206d6573736167652062757360381b6044820152606401610233565b60008280602001905181019061040a9190611934565b80516004805467ffffffffffffffff19166001600160401b039092169190911781556020808301518051939450849361044792600592019061132f565b5060408201518051610463916002840191602090910190611394565b5060609190910151600390910180546001600160a01b0319166001600160a01b039092169190911790555060019695505050505050565b600060606000836040516020016104b391815260200190565b60408051601f198184030181529082905263299aee5160e11b825291506001600160a01b037f00000000000000000000000000000000000000000000000000000000000000001690635335dca29061050f908490600401611a37565b60206040518083038186803b15801561052757600080fd5b505afa15801561053b573d6000803e3d6000fd5b505050506040513d601f19601f8201168201806040525081019061055f9190611a4a565b94909350915050565b6040516001600160a01b03808516602483015283166044820152606481018290526105d39085906323b872dd60e01b906084015b60408051601f198184030181529190526020810180516001600160e01b03166001600160e01b031990931692909217909152610672565b50505050565b60008060006105ee8d8d8d8d8d8d8c8c610749565b885191935091501561066257846001600160a01b0316634289fbb3858f8d85878d6040518763ffffffff1660e01b815260040161062f959493929190611a63565b6000604051808303818588803b15801561064857600080fd5b505af115801561065c573d6000803e3d6000fd5b50505050505b509b9a5050505050505050505050565b60006106c7826040518060400160405280602081526020017f5361666545524332303a206c6f772d6c6576656c2063616c6c206661696c6564815250856001600160a01b0316610edb9092919063ffffffff16565b80519091501561074457808060200190518101906106e59190611aa5565b6107445760405162461bcd60e51b815260206004820152602a60248201527f5361666545524332303a204552433230206f7065726174696f6e20646964206e6044820152691bdd081cdd58d8d9595960b21b6064820152608401610233565b505050565b600080600184600681111561076057610760611494565b141561088e57826001600160a01b03166382980dc46040518163ffffffff1660e01b815260040160206040518083038186803b15801561079f57600080fd5b505afa1580156107b3573d6000803e3d6000fd5b505050506040513d601f19601f820116820180604052508101906107d79190611ac7565b90506107ed6001600160a01b038a16828a610ef4565b60405163a5977fbb60e01b81526001600160a01b038b811660048301528a81166024830152604482018a90526001600160401b03808a1660648401528816608483015263ffffffff871660a483015282169063a5977fbb9060c401600060405180830381600087803b15801561086257600080fd5b505af1158015610876573d6000803e3d6000fd5b505050506108878a8a8a8a8a610fb5565b9150610ece565b60028460068111156108a2576108a2611494565b14156109a257826001600160a01b031663d8257d176040518163ffffffff1660e01b815260040160206040518083038186803b1580156108e157600080fd5b505afa1580156108f5573d6000803e3d6000fd5b505050506040513d601f19601f820116820180604052508101906109199190611ac7565b905061092f6001600160a01b038a16828a610ef4565b806001600160a01b031663234636248a8a8a8e8b6040518663ffffffff1660e01b8152600401610963959493929190611ae4565b600060405180830381600087803b15801561097d57600080fd5b505af1158015610991573d6000803e3d6000fd5b505050506108878a8a8a8a8a611038565b60038460068111156109b6576109b6611494565b1415610b4757826001600160a01b031663dfa2dbaf6040518163ffffffff1660e01b815260040160206040518083038186803b1580156109f557600080fd5b505afa158015610a09573d6000803e3d6000fd5b505050506040513d601f19601f82011682018060405250810190610a2d9190611ac7565b9050610a436001600160a01b038a16828a610ef4565b604051636f3c863f60e11b81526001600160a01b038a81166004830152602482018a90528b811660448301526001600160401b038816606483015282169063de790c7e90608401600060405180830381600087803b158015610aa457600080fd5b505af1158015610ab8573d6000803e3d6000fd5b50610ad2925050506001600160a01b038a168260006110a1565b604080516001600160601b031930606090811b82166020808501919091528d821b83166034850152604884018d9052908e901b90911660688301526001600160c01b031960c08a811b8216607c85015246901b1660848301528251808303606c018152608c9092019092528051910120610887565b6004846006811115610b5b57610b5b611494565b1415610c6e57826001600160a01b031663c66a9c5a6040518163ffffffff1660e01b815260040160206040518083038186803b158015610b9a57600080fd5b505afa158015610bae573d6000803e3d6000fd5b505050506040513d601f19601f82011682018060405250810190610bd29190611ac7565b9050610be86001600160a01b038a16828a610ef4565b806001600160a01b031663234636248a8a8a8e8b6040518663ffffffff1660e01b8152600401610c1c959493929190611ae4565b602060405180830381600087803b158015610c3657600080fd5b505af1158015610c4a573d6000803e3d6000fd5b505050506040513d601f19601f820116820180604052508101906108879190611a4a565b6005846006811115610c8257610c82611494565b1415610db157826001600160a01b03166395b12c276040518163ffffffff1660e01b815260040160206040518083038186803b158015610cc157600080fd5b505afa158015610cd5573d6000803e3d6000fd5b505050506040513d601f19601f82011682018060405250810190610cf99190611ac7565b9050610d0f6001600160a01b038a16828a610ef4565b806001600160a01b031663a00293018a8a8a8e8b6040518663ffffffff1660e01b8152600401610d43959493929190611ae4565b602060405180830381600087803b158015610d5d57600080fd5b505af1158015610d71573d6000803e3d6000fd5b505050506040513d601f19601f82011682018060405250810190610d959190611a4a565b9150610dac6001600160a01b038a168260006110a1565b610ece565b6006846006811115610dc557610dc5611494565b1415610e8657826001600160a01b03166395b12c276040518163ffffffff1660e01b815260040160206040518083038186803b158015610e0457600080fd5b505afa158015610e18573d6000803e3d6000fd5b505050506040513d601f19601f82011682018060405250810190610e3c9190611ac7565b9050610e526001600160a01b038a16828a610ef4565b806001600160a01b0316639e422c338a8a8a8e8b6040518663ffffffff1660e01b8152600401610d43959493929190611ae4565b60405162461bcd60e51b815260206004820152601960248201527f6272696467652074797065206e6f7420737570706f72746564000000000000006044820152606401610233565b9850989650505050505050565b6060610eea84846000856111c5565b90505b9392505050565b604051636eb1769f60e11b81523060048201526001600160a01b038381166024830152600091839186169063dd62ed3e9060440160206040518083038186803b158015610f4057600080fd5b505afa158015610f54573d6000803e3d6000fd5b505050506040513d601f19601f82011682018060405250810190610f789190611a4a565b610f829190611b1f565b6040516001600160a01b0385166024820152604481018290529091506105d390859063095ea7b360e01b9060640161059c565b6040516001600160601b031930606090811b8216602084015287811b8216603484015286901b166048820152605c81018490526001600160c01b031960c084811b8216607c84015283811b8216608484015246901b16608c8201526000906094015b60405160208183030381529060405280519060200120905095945050505050565b6040516001600160601b031930606090811b8216602084015286811b82166034840152604883018690526001600160c01b031960c086811b821660688601529189901b909216607084015283811b8216608484015246901b16608c820152600090609401611017565b80158061112a5750604051636eb1769f60e11b81523060048201526001600160a01b03838116602483015284169063dd62ed3e9060440160206040518083038186803b1580156110f057600080fd5b505afa158015611104573d6000803e3d6000fd5b505050506040513d601f19601f820116820180604052508101906111289190611a4a565b155b6111955760405162461bcd60e51b815260206004820152603660248201527f5361666545524332303a20617070726f76652066726f6d206e6f6e2d7a65726f60448201527520746f206e6f6e2d7a65726f20616c6c6f77616e636560501b6064820152608401610233565b6040516001600160a01b03831660248201526044810182905261074490849063095ea7b360e01b9060640161059c565b6060824710156112265760405162461bcd60e51b815260206004820152602660248201527f416464726573733a20696e73756666696369656e742062616c616e636520666f6044820152651c8818d85b1b60d21b6064820152608401610233565b6001600160a01b0385163b61127d5760405162461bcd60e51b815260206004820152601d60248201527f416464726573733a2063616c6c20746f206e6f6e2d636f6e74726163740000006044820152606401610233565b600080866001600160a01b031685876040516112999190611b45565b60006040518083038185875af1925050503d80600081146112d6576040519150601f19603f3d011682016040523d82523d6000602084013e6112db565b606091505b50915091506112eb8282866112f6565b979650505050505050565b60608315611305575081610eed565b8251156113155782518084602001fd5b8160405162461bcd60e51b81526004016102339190611a37565b828054828255906000526020600020908101928215611384579160200282015b8281111561138457825182546001600160a01b0319166001600160a01b0390911617825560209092019160019091019061134f565b506113909291506113cf565b5090565b828054828255906000526020600020908101928215611384579160200282015b828111156113845782518255916020019190600101906113b4565b5b8082111561139057600081556001016113d0565b6001600160a01b03811681146113f957600080fd5b50565b8035611407816113e4565b919050565b6000806000806060858703121561142257600080fd5b843561142d816113e4565b93506020850135925060408501356001600160401b038082111561145057600080fd5b818701915087601f83011261146457600080fd5b81358181111561147357600080fd5b88602082850101111561148557600080fd5b95989497505060200194505050565b634e487b7160e01b600052602160045260246000fd5b60208101600383106114cc57634e487b7160e01b600052602160045260246000fd5b91905290565b6001600160401b03811681146113f957600080fd5b60008060008060008060c0878903121561150057600080fd5b863561150b816113e4565b9550602087013561151b816113e4565b9450604087013593506060870135611532816114d2565b9250608087013563ffffffff8116811461154b57600080fd5b8092505060a087013590509295509295509295565b634e487b7160e01b600052604160045260246000fd5b604051608081016001600160401b038111828210171561159857611598611560565b60405290565b604051601f8201601f191681016001600160401b03811182821017156115c6576115c6611560565b604052919050565b600080600080600060a086880312156115e657600080fd5b85356115f1816113e4565b9450602086810135611602816113e4565b9450604087013593506060870135611619816114d2565b925060808701356001600160401b038082111561163557600080fd5b818901915089601f83011261164957600080fd5b81358181111561165b5761165b611560565b61166d601f8201601f1916850161159e565b91508082528a8482850101111561168357600080fd5b80848401858401376000848284010152508093505050509295509295909350565b6000602082840312156116b657600080fd5b5035919050565b60005b838110156116d85781810151838201526020016116c0565b838111156105d35750506000910152565b600081518084526117018160208601602086016116bd565b601f01601f19169290920160200192915050565b828152604060208201526000610eea60408301846116e9565b60006001600160401b0382111561174757611747611560565b5060051b60200190565b600082601f83011261176257600080fd5b813560206117776117728361172e565b61159e565b82815260059290921b8401810191818101908684111561179657600080fd5b8286015b848110156117b1578035835291830191830161179a565b509695505050505050565b600060208083850312156117cf57600080fd5b82356001600160401b03808211156117e657600080fd5b90840190608082870312156117fa57600080fd5b611802611576565b823561180d816114d2565b8152828401358281111561182057600080fd5b8301601f8101881361183157600080fd5b803561183f6117728261172e565b81815260059190911b8201860190868101908a83111561185e57600080fd5b928701925b82841015611885578335611876816113e4565b82529287019290870190611863565b80888601525050505060408301359350818411156118a257600080fd5b6118ae87858501611751565b60408201526118bf606084016113fc565b60608201529695505050505050565b8051611407816113e4565b600082601f8301126118ea57600080fd5b815160206118fa6117728361172e565b82815260059290921b8401810191818101908684111561191957600080fd5b8286015b848110156117b1578051835291830191830161191d565b6000602080838503121561194757600080fd5b82516001600160401b038082111561195e57600080fd5b908401906080828703121561197257600080fd5b61197a611576565b8251611985816114d2565b8152828401518281111561199857600080fd5b8301601f810188136119a957600080fd5b80516119b76117728261172e565b81815260059190911b8201860190868101908a8311156119d657600080fd5b928701925b828410156119fd5783516119ee816113e4565b825292870192908701906119db565b8088860152505050506040830151935081841115611a1a57600080fd5b611a26878585016118d9565b60408201526118bf606084016118ce565b602081526000610eed60208301846116e9565b600060208284031215611a5c57600080fd5b5051919050565b6001600160a01b0386811682526001600160401b0386166020830152841660408201526060810183905260a0608082018190526000906112eb908301846116e9565b600060208284031215611ab757600080fd5b81518015158114610eed57600080fd5b600060208284031215611ad957600080fd5b8151610eed816113e4565b6001600160a01b03958616815260208101949094526001600160401b0392831660408501529316606083015291909116608082015260a00190565b60008219821115611b4057634e487b7160e01b600052601160045260246000fd5b500190565b60008251611b578184602087016116bd565b919091019291505056fea26469706673582212203b586c703c75ff65be735a7201f1be5a764ec2678580ddbdb48812cc2366e20764736f6c63430008090033",
  "devdoc": {
    "kind": "dev",
    "methods": {},
    "version": 1
  },
  "userdoc": {
    "kind": "user",
    "methods": {},
    "version": 1
  },
  "storageLayout": {
    "storage": [
      {
        "astId": 730,
        "contract": "contracts/Sender.sol:Sender",
        "label": "transfer",
        "offset": 0,
        "slot": "0",
        "type": "t_struct(TransferRequest)825_storage"
      },
      {
        "astId": 766,
        "contract": "contracts/Sender.sol:Sender",
        "label": "transfer2",
        "offset": 0,
        "slot": "4",
        "type": "t_struct(TransferRequest)825_storage"
      }
    ],
    "types": {
      "t_address": {
        "encoding": "inplace",
        "label": "address",
        "numberOfBytes": "20"
      },
      "t_array(t_address)dyn_storage": {
        "base": "t_address",
        "encoding": "dynamic_array",
        "label": "address[]",
        "numberOfBytes": "32"
      },
      "t_array(t_uint256)dyn_storage": {
        "base": "t_uint256",
        "encoding": "dynamic_array",
        "label": "uint256[]",
        "numberOfBytes": "32"
      },
      "t_struct(TransferRequest)825_storage": {
        "encoding": "inplace",
        "label": "struct IBatchTransfer.TransferRequest",
        "members": [
          {
            "astId": 816,
            "contract": "contracts/Sender.sol:Sender",
            "label": "nonce",
            "offset": 0,
            "slot": "0",
            "type": "t_uint64"
          },
          {
            "astId": 819,
            "contract": "contracts/Sender.sol:Sender",
            "label": "accounts",
            "offset": 0,
            "slot": "1",
            "type": "t_array(t_address)dyn_storage"
          },
          {
            "astId": 822,
            "contract": "contracts/Sender.sol:Sender",
            "label": "amounts",
            "offset": 0,
            "slot": "2",
            "type": "t_array(t_uint256)dyn_storage"
          },
          {
            "astId": 824,
            "contract": "contracts/Sender.sol:Sender",
            "label": "sender",
            "offset": 0,
            "slot": "3",
            "type": "t_address"
          }
        ],
        "numberOfBytes": "128"
      },
      "t_uint256": {
        "encoding": "inplace",
        "label": "uint256",
        "numberOfBytes": "32"
      },
      "t_uint64": {
        "encoding": "inplace",
        "label": "uint64",
        "numberOfBytes": "8"
      }
    }
  }
}