{
  "address": "0xf2300F9108288E893ca81476763D22b1de71DFB3",
  "abi": [
    {
      "inputs": [
        {
          "internalType": "address",
          "name": "_messageBus",
          "type": "address"
        }
      ],
      "stateMutability": "nonpayable",
      "type": "constructor"
    },
    {
      "anonymous": false,
      "inputs": [
        {
          "indexed": false,
          "internalType": "bytes32",
          "name": "transferId",
          "type": "bytes32"
        },
        {
          "indexed": false,
          "internalType": "address",
          "name": "sender",
          "type": "address"
        },
        {
          "indexed": false,
          "internalType": "address",
          "name": "token",
          "type": "address"
        },
        {
          "indexed": false,
          "internalType": "uint256",
          "name": "amount",
          "type": "uint256"
        },
        {
          "indexed": false,
          "internalType": "uint64",
          "name": "toChain",
          "type": "uint64"
        }
      ],
      "name": "CrossChain",
      "type": "event"
    },
    {
      "anonymous": false,
      "inputs": [
        {
          "indexed": false,
          "internalType": "bytes32",
          "name": "transferId",
          "type": "bytes32"
        }
      ],
      "name": "Send",
      "type": "event"
    },
    {
      "anonymous": false,
      "inputs": [
        {
          "indexed": false,
          "internalType": "address",
          "name": "sender",
          "type": "address"
        },
        {
          "indexed": false,
          "internalType": "address",
          "name": "token",
          "type": "address"
        },
        {
          "indexed": false,
          "internalType": "uint256",
          "name": "amount",
          "type": "uint256"
        }
      ],
      "name": "Transfer2Address",
      "type": "event"
    },
    {
      "stateMutability": "payable",
      "type": "fallback"
    },
    {
      "inputs": [
        {
          "internalType": "address",
          "name": "_sender",
          "type": "address"
        },
        {
          "internalType": "address",
          "name": "_token",
          "type": "address"
        },
        {
          "internalType": "uint256",
          "name": "_amount",
          "type": "uint256"
        },
        {
          "internalType": "uint64",
          "name": "_srcChainId",
          "type": "uint64"
        },
        {
          "internalType": "bytes",
          "name": "_message",
          "type": "bytes"
        },
        {
          "internalType": "address",
          "name": "",
          "type": "address"
        }
      ],
      "name": "executeMessageWithTransfer",
      "outputs": [
        {
          "internalType": "enum IBaseStruct.ExecutionStatus",
          "name": "",
          "type": "uint8"
        }
      ],
      "stateMutability": "nonpayable",
      "type": "function"
    },
    {
      "inputs": [
        {
          "internalType": "address",
          "name": "_sender",
          "type": "address"
        },
        {
          "internalType": "address",
          "name": "_token",
          "type": "address"
        },
        {
          "internalType": "uint256",
          "name": "_amount",
          "type": "uint256"
        },
        {
          "internalType": "uint64",
          "name": "_srcChainId",
          "type": "uint64"
        },
        {
          "internalType": "bytes",
          "name": "_message",
          "type": "bytes"
        },
        {
          "internalType": "address",
          "name": "",
          "type": "address"
        }
      ],
      "name": "executeMessageWithTransferFallback",
      "outputs": [
        {
          "internalType": "enum IBaseStruct.ExecutionStatus",
          "name": "",
          "type": "uint8"
        }
      ],
      "stateMutability": "payable",
      "type": "function"
    },
    {
      "inputs": [
        {
          "internalType": "address",
          "name": "_sender",
          "type": "address"
        },
        {
          "internalType": "uint64",
          "name": "_srcChainId",
          "type": "uint64"
        },
        {
          "internalType": "bytes",
          "name": "_message",
          "type": "bytes"
        },
        {
          "internalType": "address",
          "name": "",
          "type": "address"
        }
      ],
      "name": "executeMessageWithTransferRefund",
      "outputs": [
        {
          "internalType": "enum IBaseStruct.ExecutionStatus",
          "name": "",
          "type": "uint8"
        }
      ],
      "stateMutability": "payable",
      "type": "function"
    },
    {
      "inputs": [
        {
          "components": [
            {
              "internalType": "bool",
              "name": "back",
              "type": "bool"
            },
            {
              "internalType": "uint32",
              "name": "maxSlippage",
              "type": "uint32"
            },
            {
              "internalType": "address",
              "name": "to",
              "type": "address"
            }
          ],
          "internalType": "struct IBaseStruct.TransferData",
          "name": "_data",
          "type": "tuple"
        }
      ],
      "name": "getFee",
      "outputs": [
        {
          "internalType": "uint256",
          "name": "_fee",
          "type": "uint256"
        },
        {
          "internalType": "bytes",
          "name": "_sendData",
          "type": "bytes"
        }
      ],
      "stateMutability": "view",
      "type": "function"
    },
    {
      "inputs": [],
      "name": "messageBus",
      "outputs": [
        {
          "internalType": "address",
          "name": "",
          "type": "address"
        }
      ],
      "stateMutability": "view",
      "type": "function"
    },
    {
      "inputs": [
        {
          "internalType": "address",
          "name": "_receiver",
          "type": "address"
        },
        {
          "internalType": "address",
          "name": "_token",
          "type": "address"
        },
        {
          "internalType": "uint256",
          "name": "_amount",
          "type": "uint256"
        },
        {
          "internalType": "uint64",
          "name": "_dstChainId",
          "type": "uint64"
        },
        {
          "internalType": "uint32",
          "name": "_maxSlippage",
          "type": "uint32"
        }
      ],
      "name": "send",
      "outputs": [],
      "stateMutability": "payable",
      "type": "function"
    },
    {
      "inputs": [],
      "name": "transfer",
      "outputs": [
        {
          "internalType": "uint64",
          "name": "nonce",
          "type": "uint64"
        },
        {
          "internalType": "address",
          "name": "sender",
          "type": "address"
        }
      ],
      "stateMutability": "view",
      "type": "function"
    },
    {
      "inputs": [],
      "name": "transfer2",
      "outputs": [
        {
          "internalType": "uint64",
          "name": "nonce",
          "type": "uint64"
        },
        {
          "internalType": "address",
          "name": "sender",
          "type": "address"
        }
      ],
      "stateMutability": "view",
      "type": "function"
    },
    {
      "stateMutability": "payable",
      "type": "receive"
    }
  ],
  "transactionHash": "0x2f75b2de8b1d2eb926691a9c7004dc3eeddf69bb604db66fd5dabb400782e379",
  "args": [
    "0xF25170F86E4291a99a9A560032Fe9948b8BcFBB2"
  ],
  "numDeployments": 1,
  "solcInputHash": "d3c5fa5ca03d32bc849a336ae590ba85",
  "bytecode": "0x60a060405234801561001057600080fd5b50604051611d25380380611d2583398101604081905261002f91610040565b6001600160a01b0316608052610070565b60006020828403121561005257600080fd5b81516001600160a01b038116811461006957600080fd5b9392505050565b608051611c776100ae600039600081816101ae01528181610287015281816102ff01528181610444015281816104dd01526105550152611c776000f3fe6080604052600436106100795760003560e01c80637cd2bffc1161004b5780637cd2bffc1461013c5780638a4068dd1461015c57806397a5529a14610189578063a1a227fa1461019c57005b8063248c44e81461008257806331096f44146100db5780635ab7afc6146100ee5780636bf701641461010e57005b3661008057005b005b34801561008e57600080fd5b506004546007546100af916001600160401b0316906001600160a01b031682565b604080516001600160401b0390931683526001600160a01b039091166020830152015b60405180910390f35b6100806100e9366004611504565b6101e8565b6101016100fc366004611645565b6102f2565b6040516100d291906116ec565b34801561011a57600080fd5b5061012e610129366004611722565b6103e3565b6040516100d29291906117e9565b34801561014857600080fd5b50610101610157366004611802565b6104d0565b34801561016857600080fd5b506000546003546100af916001600160401b0316906001600160a01b031682565b6101016101973660046118c6565b610548565b3480156101a857600080fd5b506101d07f000000000000000000000000000000000000000000000000000000000000000081565b6040516001600160a01b0390911681526020016100d2565b6101fd6001600160a01b038516333086610637565b604080516060810182526001815263ffffffff83166020820152339181019190915260008061022b836103e3565b91509150813410156102775760405162461bcd60e51b815260206004820152601060248201526f496e73756666696369656e742066656560801b60448201526064015b60405180910390fd5b60006102ac89898989428a8860017f00000000000000000000000000000000000000000000000000000000000000008c6106a8565b90507f086a0b34f7ece83090c3c5316bf102eec3c65cfd255dc74a383b55e19eb539ac816040516102df91815260200190565b60405180910390a1505050505050505050565b6000336001600160a01b037f0000000000000000000000000000000000000000000000000000000000000000161461033c5760405162461bcd60e51b815260040161026e9061193a565b6000838060200190518101906103529190611a0a565b80516000805467ffffffffffffffff19166001600160401b039092169190911781556020808301518051939450849361038f9260019201906113fe565b50604082015180516103ab916002840191602090910190611463565b5060609190910151600390910180546001600160a01b0319166001600160a01b03909216919091179055506001979650505050505050565b604080518251151560208083019190915283015163ffffffff1681830152908201516001600160a01b031660608281019190915260009160800160408051601f198184030181529082905263299aee5160e11b825291506001600160a01b037f00000000000000000000000000000000000000000000000000000000000000001690635335dca290610479908490600401611b1c565b60206040518083038186803b15801561049157600080fd5b505afa1580156104a5573d6000803e3d6000fd5b505050506040513d601f19601f820116820180604052508101906104c99190611b2f565b9150915091565b6000336001600160a01b037f0000000000000000000000000000000000000000000000000000000000000000161461051a5760405162461bcd60e51b815260040161026e9061193a565b60405162461bcd60e51b815260206004820152600360248201526261616160e81b604482015260640161026e565b6000336001600160a01b037f000000000000000000000000000000000000000000000000000000000000000016146105925760405162461bcd60e51b815260040161026e9061193a565b6000838060200190518101906105a89190611a0a565b80516000805467ffffffffffffffff19166001600160401b03909216919091178155602080830151805193945084936105e59260019201906113fe565b5060408201518051610601916002840191602090910190611463565b5060609190910151600390910180546001600160a01b0319166001600160a01b0390921691909117905550600195945050505050565b6040516001600160a01b03808516602483015283166044820152606481018290526106a29085906323b872dd60e01b906084015b60408051601f198184030181529190526020810180516001600160e01b03166001600160e01b031990931692909217909152610741565b50505050565b60008060006106bd8d8d8d8d8d8d8c8c610818565b885191935091501561073157846001600160a01b0316634289fbb3858f8d85878d6040518763ffffffff1660e01b81526004016106fe959493929190611b48565b6000604051808303818588803b15801561071757600080fd5b505af115801561072b573d6000803e3d6000fd5b50505050505b509b9a5050505050505050505050565b6000610796826040518060400160405280602081526020017f5361666545524332303a206c6f772d6c6576656c2063616c6c206661696c6564815250856001600160a01b0316610faa9092919063ffffffff16565b80519091501561081357808060200190518101906107b49190611b8a565b6108135760405162461bcd60e51b815260206004820152602a60248201527f5361666545524332303a204552433230206f7065726174696f6e20646964206e6044820152691bdd081cdd58d8d9595960b21b606482015260840161026e565b505050565b600080600184600681111561082f5761082f6116d6565b141561095d57826001600160a01b03166382980dc46040518163ffffffff1660e01b815260040160206040518083038186803b15801561086e57600080fd5b505afa158015610882573d6000803e3d6000fd5b505050506040513d601f19601f820116820180604052508101906108a69190611ba7565b90506108bc6001600160a01b038a16828a610fc3565b60405163a5977fbb60e01b81526001600160a01b038b811660048301528a81166024830152604482018a90526001600160401b03808a1660648401528816608483015263ffffffff871660a483015282169063a5977fbb9060c401600060405180830381600087803b15801561093157600080fd5b505af1158015610945573d6000803e3d6000fd5b505050506109568a8a8a8a8a611084565b9150610f9d565b6002846006811115610971576109716116d6565b1415610a7157826001600160a01b031663d8257d176040518163ffffffff1660e01b815260040160206040518083038186803b1580156109b057600080fd5b505afa1580156109c4573d6000803e3d6000fd5b505050506040513d601f19601f820116820180604052508101906109e89190611ba7565b90506109fe6001600160a01b038a16828a610fc3565b806001600160a01b031663234636248a8a8a8e8b6040518663ffffffff1660e01b8152600401610a32959493929190611bc4565b600060405180830381600087803b158015610a4c57600080fd5b505af1158015610a60573d6000803e3d6000fd5b505050506109568a8a8a8a8a611107565b6003846006811115610a8557610a856116d6565b1415610c1657826001600160a01b031663dfa2dbaf6040518163ffffffff1660e01b815260040160206040518083038186803b158015610ac457600080fd5b505afa158015610ad8573d6000803e3d6000fd5b505050506040513d601f19601f82011682018060405250810190610afc9190611ba7565b9050610b126001600160a01b038a16828a610fc3565b604051636f3c863f60e11b81526001600160a01b038a81166004830152602482018a90528b811660448301526001600160401b038816606483015282169063de790c7e90608401600060405180830381600087803b158015610b7357600080fd5b505af1158015610b87573d6000803e3d6000fd5b50610ba1925050506001600160a01b038a16826000611170565b604080516001600160601b031930606090811b82166020808501919091528d821b83166034850152604884018d9052908e901b90911660688301526001600160c01b031960c08a811b8216607c85015246901b1660848301528251808303606c018152608c9092019092528051910120610956565b6004846006811115610c2a57610c2a6116d6565b1415610d3d57826001600160a01b031663c66a9c5a6040518163ffffffff1660e01b815260040160206040518083038186803b158015610c6957600080fd5b505afa158015610c7d573d6000803e3d6000fd5b505050506040513d601f19601f82011682018060405250810190610ca19190611ba7565b9050610cb76001600160a01b038a16828a610fc3565b806001600160a01b031663234636248a8a8a8e8b6040518663ffffffff1660e01b8152600401610ceb959493929190611bc4565b602060405180830381600087803b158015610d0557600080fd5b505af1158015610d19573d6000803e3d6000fd5b505050506040513d601f19601f820116820180604052508101906109569190611b2f565b6005846006811115610d5157610d516116d6565b1415610e8057826001600160a01b03166395b12c276040518163ffffffff1660e01b815260040160206040518083038186803b158015610d9057600080fd5b505afa158015610da4573d6000803e3d6000fd5b505050506040513d601f19601f82011682018060405250810190610dc89190611ba7565b9050610dde6001600160a01b038a16828a610fc3565b806001600160a01b031663a00293018a8a8a8e8b6040518663ffffffff1660e01b8152600401610e12959493929190611bc4565b602060405180830381600087803b158015610e2c57600080fd5b505af1158015610e40573d6000803e3d6000fd5b505050506040513d601f19601f82011682018060405250810190610e649190611b2f565b9150610e7b6001600160a01b038a16826000611170565b610f9d565b6006846006811115610e9457610e946116d6565b1415610f5557826001600160a01b03166395b12c276040518163ffffffff1660e01b815260040160206040518083038186803b158015610ed357600080fd5b505afa158015610ee7573d6000803e3d6000fd5b505050506040513d601f19601f82011682018060405250810190610f0b9190611ba7565b9050610f216001600160a01b038a16828a610fc3565b806001600160a01b0316639e422c338a8a8a8e8b6040518663ffffffff1660e01b8152600401610e12959493929190611bc4565b60405162461bcd60e51b815260206004820152601960248201527f6272696467652074797065206e6f7420737570706f7274656400000000000000604482015260640161026e565b9850989650505050505050565b6060610fb98484600085611294565b90505b9392505050565b604051636eb1769f60e11b81523060048201526001600160a01b038381166024830152600091839186169063dd62ed3e9060440160206040518083038186803b15801561100f57600080fd5b505afa158015611023573d6000803e3d6000fd5b505050506040513d601f19601f820116820180604052508101906110479190611b2f565b6110519190611bff565b6040516001600160a01b0385166024820152604481018290529091506106a290859063095ea7b360e01b9060640161066b565b6040516001600160601b031930606090811b8216602084015287811b8216603484015286901b166048820152605c81018490526001600160c01b031960c084811b8216607c84015283811b8216608484015246901b16608c8201526000906094015b60405160208183030381529060405280519060200120905095945050505050565b6040516001600160601b031930606090811b8216602084015286811b82166034840152604883018690526001600160c01b031960c086811b821660688601529189901b909216607084015283811b8216608484015246901b16608c8201526000906094016110e6565b8015806111f95750604051636eb1769f60e11b81523060048201526001600160a01b03838116602483015284169063dd62ed3e9060440160206040518083038186803b1580156111bf57600080fd5b505afa1580156111d3573d6000803e3d6000fd5b505050506040513d601f19601f820116820180604052508101906111f79190611b2f565b155b6112645760405162461bcd60e51b815260206004820152603660248201527f5361666545524332303a20617070726f76652066726f6d206e6f6e2d7a65726f60448201527520746f206e6f6e2d7a65726f20616c6c6f77616e636560501b606482015260840161026e565b6040516001600160a01b03831660248201526044810182905261081390849063095ea7b360e01b9060640161066b565b6060824710156112f55760405162461bcd60e51b815260206004820152602660248201527f416464726573733a20696e73756666696369656e742062616c616e636520666f6044820152651c8818d85b1b60d21b606482015260840161026e565b6001600160a01b0385163b61134c5760405162461bcd60e51b815260206004820152601d60248201527f416464726573733a2063616c6c20746f206e6f6e2d636f6e7472616374000000604482015260640161026e565b600080866001600160a01b031685876040516113689190611c25565b60006040518083038185875af1925050503d80600081146113a5576040519150601f19603f3d011682016040523d82523d6000602084013e6113aa565b606091505b50915091506113ba8282866113c5565b979650505050505050565b606083156113d4575081610fbc565b8251156113e45782518084602001fd5b8160405162461bcd60e51b815260040161026e9190611b1c565b828054828255906000526020600020908101928215611453579160200282015b8281111561145357825182546001600160a01b0319166001600160a01b0390911617825560209092019160019091019061141e565b5061145f92915061149e565b5090565b828054828255906000526020600020908101928215611453579160200282015b82811115611453578251825591602001919060010190611483565b5b8082111561145f576000815560010161149f565b6001600160a01b03811681146114c857600080fd5b50565b80356114d6816114b3565b919050565b6001600160401b03811681146114c857600080fd5b803563ffffffff811681146114d657600080fd5b600080600080600060a0868803121561151c57600080fd5b8535611527816114b3565b94506020860135611537816114b3565b935060408601359250606086013561154e816114db565b915061155c608087016114f0565b90509295509295909350565b634e487b7160e01b600052604160045260246000fd5b604051608081016001600160401b03811182821017156115a0576115a0611568565b60405290565b604051601f8201601f191681016001600160401b03811182821017156115ce576115ce611568565b604052919050565b600082601f8301126115e757600080fd5b81356001600160401b0381111561160057611600611568565b611613601f8201601f19166020016115a6565b81815284602083860101111561162857600080fd5b816020850160208301376000918101602001919091529392505050565b60008060008060008060c0878903121561165e57600080fd5b8635611669816114b3565b95506020870135611679816114b3565b9450604087013593506060870135611690816114db565b925060808701356001600160401b038111156116ab57600080fd5b6116b789828a016115d6565b92505060a08701356116c8816114b3565b809150509295509295509295565b634e487b7160e01b600052602160045260246000fd5b602081016003831061170e57634e487b7160e01b600052602160045260246000fd5b91905290565b80151581146114c857600080fd5b60006060828403121561173457600080fd5b604051606081018181106001600160401b038211171561175657611756611568565b604052823561176481611714565b8152611772602084016114f0565b60208201526040830135611785816114b3565b60408201529392505050565b60005b838110156117ac578181015183820152602001611794565b838111156106a25750506000910152565b600081518084526117d5816020860160208601611791565b601f01601f19169290920160200192915050565b828152604060208201526000610fb960408301846117bd565b600080600080600080600060c0888a03121561181d57600080fd5b8735611828816114b3565b96506020880135611838816114b3565b955060408801359450606088013561184f816114db565b935060808801356001600160401b038082111561186b57600080fd5b818a0191508a601f83011261187f57600080fd5b81358181111561188e57600080fd5b8b60208285010111156118a057600080fd5b6020830195508094505050506118b860a089016114cb565b905092959891949750929550565b600080600080608085870312156118dc57600080fd5b84356118e7816114b3565b935060208501356118f7816114db565b925060408501356001600160401b0381111561191257600080fd5b61191e878288016115d6565b925050606085013561192f816114b3565b939692955090935050565b60208082526019908201527f63616c6c6572206973206e6f74206d6573736167652062757300000000000000604082015260600190565b60006001600160401b0382111561198a5761198a611568565b5060051b60200190565b80516114d6816114b3565b600082601f8301126119b057600080fd5b815160206119c56119c083611971565b6115a6565b82815260059290921b840181019181810190868411156119e457600080fd5b8286015b848110156119ff57805183529183019183016119e8565b509695505050505050565b60006020808385031215611a1d57600080fd5b82516001600160401b0380821115611a3457600080fd5b9084019060808287031215611a4857600080fd5b611a5061157e565b8251611a5b816114db565b81528284015182811115611a6e57600080fd5b8301601f81018813611a7f57600080fd5b8051611a8d6119c082611971565b81815260059190911b8201860190868101908a831115611aac57600080fd5b928701925b82841015611ad3578351611ac4816114b3565b82529287019290870190611ab1565b8088860152505050506040830151935081841115611af057600080fd5b611afc8785850161199f565b6040820152611b0d60608401611994565b60608201529695505050505050565b602081526000610fbc60208301846117bd565b600060208284031215611b4157600080fd5b5051919050565b6001600160a01b0386811682526001600160401b0386166020830152841660408201526060810183905260a0608082018190526000906113ba908301846117bd565b600060208284031215611b9c57600080fd5b8151610fbc81611714565b600060208284031215611bb957600080fd5b8151610fbc816114b3565b6001600160a01b03958616815260208101949094526001600160401b0392831660408501529316606083015291909116608082015260a00190565b60008219821115611c2057634e487b7160e01b600052601160045260246000fd5b500190565b60008251611c37818460208701611791565b919091019291505056fea2646970667358221220f843354f19d54fa7b4a777e39a1a86570e3037da0a6c8363e94bb1ac4445d9f464736f6c63430008090033",
  "devdoc": {
    "kind": "dev",
    "methods": {},
    "version": 1
  },
  "userdoc": {
    "kind": "user",
    "methods": {},
    "version": 1
  },
  "storageLayout": {
    "storage": [
      {
        "astId": 1824,
        "contract": "contracts/Demo.sol:Demo",
        "label": "transfer",
        "offset": 0,
        "slot": "0",
        "type": "t_struct(TransferRequest)738_storage"
      },
      {
        "astId": 1861,
        "contract": "contracts/Demo.sol:Demo",
        "label": "transfer2",
        "offset": 0,
        "slot": "4",
        "type": "t_struct(TransferRequest)738_storage"
      }
    ],
    "types": {
      "t_address": {
        "encoding": "inplace",
        "label": "address",
        "numberOfBytes": "20"
      },
      "t_array(t_address)dyn_storage": {
        "base": "t_address",
        "encoding": "dynamic_array",
        "label": "address[]",
        "numberOfBytes": "32"
      },
      "t_array(t_uint256)dyn_storage": {
        "base": "t_uint256",
        "encoding": "dynamic_array",
        "label": "uint256[]",
        "numberOfBytes": "32"
      },
      "t_struct(TransferRequest)738_storage": {
        "encoding": "inplace",
        "label": "struct IBaseStruct.TransferRequest",
        "members": [
          {
            "astId": 729,
            "contract": "contracts/Demo.sol:Demo",
            "label": "nonce",
            "offset": 0,
            "slot": "0",
            "type": "t_uint64"
          },
          {
            "astId": 732,
            "contract": "contracts/Demo.sol:Demo",
            "label": "accounts",
            "offset": 0,
            "slot": "1",
            "type": "t_array(t_address)dyn_storage"
          },
          {
            "astId": 735,
            "contract": "contracts/Demo.sol:Demo",
            "label": "amounts",
            "offset": 0,
            "slot": "2",
            "type": "t_array(t_uint256)dyn_storage"
          },
          {
            "astId": 737,
            "contract": "contracts/Demo.sol:Demo",
            "label": "sender",
            "offset": 0,
            "slot": "3",
            "type": "t_address"
          }
        ],
        "numberOfBytes": "128"
      },
      "t_uint256": {
        "encoding": "inplace",
        "label": "uint256",
        "numberOfBytes": "32"
      },
      "t_uint64": {
        "encoding": "inplace",
        "label": "uint64",
        "numberOfBytes": "8"
      }
    }
  }
}