{
  "address": "0x450F9F7De6FC5F1Edc5A7cBeA6549Fd124977ccb",
  "abi": [
    {
      "inputs": [
        {
          "internalType": "address",
          "name": "_messageBus",
          "type": "address"
        }
      ],
      "stateMutability": "nonpayable",
      "type": "constructor"
    },
    {
      "anonymous": false,
      "inputs": [
        {
          "indexed": false,
          "internalType": "bytes32",
          "name": "transferId",
          "type": "bytes32"
        },
        {
          "indexed": false,
          "internalType": "address",
          "name": "sender",
          "type": "address"
        },
        {
          "indexed": false,
          "internalType": "address",
          "name": "token",
          "type": "address"
        },
        {
          "indexed": false,
          "internalType": "uint256",
          "name": "amount",
          "type": "uint256"
        },
        {
          "indexed": false,
          "internalType": "uint64",
          "name": "toChain",
          "type": "uint64"
        }
      ],
      "name": "CrossChain",
      "type": "event"
    },
    {
      "anonymous": false,
      "inputs": [
        {
          "indexed": false,
          "internalType": "bytes32",
          "name": "transferId",
          "type": "bytes32"
        }
      ],
      "name": "Send",
      "type": "event"
    },
    {
      "anonymous": false,
      "inputs": [
        {
          "indexed": false,
          "internalType": "address",
          "name": "sender",
          "type": "address"
        },
        {
          "indexed": false,
          "internalType": "address",
          "name": "token",
          "type": "address"
        },
        {
          "indexed": false,
          "internalType": "uint256",
          "name": "amount",
          "type": "uint256"
        }
      ],
      "name": "Transfer2Address",
      "type": "event"
    },
    {
      "stateMutability": "payable",
      "type": "fallback"
    },
    {
      "inputs": [
        {
          "internalType": "address",
          "name": "_sender",
          "type": "address"
        },
        {
          "internalType": "address",
          "name": "_token",
          "type": "address"
        },
        {
          "internalType": "uint256",
          "name": "_amount",
          "type": "uint256"
        },
        {
          "internalType": "uint64",
          "name": "_srcChainId",
          "type": "uint64"
        },
        {
          "internalType": "bytes",
          "name": "_message",
          "type": "bytes"
        },
        {
          "internalType": "address",
          "name": "",
          "type": "address"
        }
      ],
      "name": "executeMessageWithTransfer",
      "outputs": [
        {
          "internalType": "enum IBaseStruct.ExecutionStatus",
          "name": "",
          "type": "uint8"
        }
      ],
      "stateMutability": "nonpayable",
      "type": "function"
    },
    {
      "inputs": [
        {
          "internalType": "address",
          "name": "",
          "type": "address"
        },
        {
          "internalType": "address",
          "name": "_token",
          "type": "address"
        },
        {
          "internalType": "uint256",
          "name": "_amount",
          "type": "uint256"
        },
        {
          "internalType": "uint64",
          "name": "",
          "type": "uint64"
        },
        {
          "internalType": "bytes",
          "name": "_message",
          "type": "bytes"
        }
      ],
      "name": "executeMessageWithTransferFallback",
      "outputs": [
        {
          "internalType": "enum IBaseStruct.ExecutionStatus",
          "name": "",
          "type": "uint8"
        }
      ],
      "stateMutability": "payable",
      "type": "function"
    },
    {
      "inputs": [
        {
          "internalType": "address",
          "name": "_token",
          "type": "address"
        },
        {
          "internalType": "uint256",
          "name": "_amount",
          "type": "uint256"
        },
        {
          "internalType": "bytes",
          "name": "_message",
          "type": "bytes"
        }
      ],
      "name": "executeMessageWithTransferRefund",
      "outputs": [
        {
          "internalType": "enum IBaseStruct.ExecutionStatus",
          "name": "",
          "type": "uint8"
        }
      ],
      "stateMutability": "payable",
      "type": "function"
    },
    {
      "inputs": [
        {
          "components": [
            {
              "internalType": "bool",
              "name": "back",
              "type": "bool"
            },
            {
              "internalType": "uint32",
              "name": "maxSlippage",
              "type": "uint32"
            },
            {
              "internalType": "address",
              "name": "to",
              "type": "address"
            }
          ],
          "internalType": "struct IBaseStruct.TransferData",
          "name": "_data",
          "type": "tuple"
        }
      ],
      "name": "getFee",
      "outputs": [
        {
          "internalType": "uint256",
          "name": "_fee",
          "type": "uint256"
        },
        {
          "internalType": "bytes",
          "name": "_sendData",
          "type": "bytes"
        }
      ],
      "stateMutability": "view",
      "type": "function"
    },
    {
      "inputs": [],
      "name": "messageBus",
      "outputs": [
        {
          "internalType": "address",
          "name": "",
          "type": "address"
        }
      ],
      "stateMutability": "view",
      "type": "function"
    },
    {
      "inputs": [
        {
          "internalType": "address",
          "name": "_receiver",
          "type": "address"
        },
        {
          "internalType": "address",
          "name": "_token",
          "type": "address"
        },
        {
          "internalType": "uint256",
          "name": "_amount",
          "type": "uint256"
        },
        {
          "internalType": "uint64",
          "name": "_dstChainId",
          "type": "uint64"
        },
        {
          "internalType": "uint32",
          "name": "_maxSlippage",
          "type": "uint32"
        }
      ],
      "name": "send",
      "outputs": [],
      "stateMutability": "payable",
      "type": "function"
    },
    {
      "inputs": [],
      "name": "transfer",
      "outputs": [
        {
          "internalType": "uint64",
          "name": "nonce",
          "type": "uint64"
        },
        {
          "internalType": "address",
          "name": "sender",
          "type": "address"
        }
      ],
      "stateMutability": "view",
      "type": "function"
    },
    {
      "inputs": [],
      "name": "transfer2",
      "outputs": [
        {
          "internalType": "uint64",
          "name": "nonce",
          "type": "uint64"
        },
        {
          "internalType": "address",
          "name": "sender",
          "type": "address"
        }
      ],
      "stateMutability": "view",
      "type": "function"
    },
    {
      "stateMutability": "payable",
      "type": "receive"
    }
  ],
  "transactionHash": "0x18c142e266926180618d051a8ee2c6c6d95a394e08dacd48ef2d5d4b7c139a32",
  "args": [
    "0xF25170F86E4291a99a9A560032Fe9948b8BcFBB2"
  ],
  "numDeployments": 1,
  "solcInputHash": "e4faa7eeafdbeaa97fb2ff15038f0245",
  "bytecode": "0x60a060405234801561001057600080fd5b50604051611e5b380380611e5b83398101604081905261002f91610040565b6001600160a01b0316608052610070565b60006020828403121561005257600080fd5b81516001600160a01b038116811461006957600080fd5b9392505050565b608051611dad6100ae6000396000818161019f015281816101f90152818161037601528181610442015281816104db01526105530152611dad6000f3fe6080604052600436106100795760003560e01c80637cd2bffc1161004b5780637cd2bffc146101405780638a4068dd14610160578063a1a227fa1461018d578063f00f39ce146101d957005b806320be95f214610082578063248c44e8146100ab57806331096f44146100ff5780636bf701641461011257005b3661008057005b005b610095610090366004611522565b6101ec565b6040516100a29190611593565b60405180910390f35b3480156100b757600080fd5b506004546007546100d8916001600160401b0316906001600160a01b031682565b604080516001600160401b0390931683526001600160a01b039091166020830152016100a2565b61008061010d3660046115e4565b6102dc565b34801561011e57600080fd5b5061013261012d3660046116c4565b6103e1565b6040516100a292919061178b565b34801561014c57600080fd5b5061009561015b3660046117a4565b6104ce565b34801561016c57600080fd5b506000546003546100d8916001600160401b0316906001600160a01b031682565b34801561019957600080fd5b506101c17f000000000000000000000000000000000000000000000000000000000000000081565b6040516001600160a01b0390911681526020016100a2565b6100956101e736600461183c565b610546565b6000336001600160a01b037f0000000000000000000000000000000000000000000000000000000000000000161461023f5760405162461bcd60e51b815260040161023690611912565b60405180910390fd5b600061024d838501856119d7565b80516000805467ffffffffffffffff19166001600160401b039092169190911781556020808301518051939450849361028a9260019201906113fd565b50604082015180516102a6916002840191602090910190611462565b5060609190910151600390910180546001600160a01b0319166001600160a01b0390921691909117905550600195945050505050565b6102f16001600160a01b038516333086610636565b604080516060810182526001815263ffffffff83166020820152339181019190915260008061031f836103e1565b91509150813410156103665760405162461bcd60e51b815260206004820152601060248201526f496e73756666696369656e742066656560801b6044820152606401610236565b600061039b89898989428a8860017f00000000000000000000000000000000000000000000000000000000000000008c6106a7565b90507f086a0b34f7ece83090c3c5316bf102eec3c65cfd255dc74a383b55e19eb539ac816040516103ce91815260200190565b60405180910390a1505050505050505050565b604080518251151560208083019190915283015163ffffffff1681830152908201516001600160a01b031660608281019190915260009160800160408051601f198184030181529082905263299aee5160e11b825291506001600160a01b037f00000000000000000000000000000000000000000000000000000000000000001690635335dca290610477908490600401611ae9565b60206040518083038186803b15801561048f57600080fd5b505afa1580156104a3573d6000803e3d6000fd5b505050506040513d601f19601f820116820180604052508101906104c79190611afc565b9150915091565b6000336001600160a01b037f000000000000000000000000000000000000000000000000000000000000000016146105185760405162461bcd60e51b815260040161023690611912565b60405162461bcd60e51b815260206004820152600360248201526261616160e81b6044820152606401610236565b6000336001600160a01b037f000000000000000000000000000000000000000000000000000000000000000016146105905760405162461bcd60e51b815260040161023690611912565b6000828060200190518101906105a69190611b7b565b80516004805467ffffffffffffffff19166001600160401b03909216919091178155602080830151805193945084936105e39260059201906113fd565b50604082015180516105ff916002840191602090910190611462565b5060609190910151600390910180546001600160a01b0319166001600160a01b039092169190911790555060019695505050505050565b6040516001600160a01b03808516602483015283166044820152606481018290526106a19085906323b872dd60e01b906084015b60408051601f198184030181529190526020810180516001600160e01b03166001600160e01b031990931692909217909152610740565b50505050565b60008060006106bc8d8d8d8d8d8d8c8c610817565b885191935091501561073057846001600160a01b0316634289fbb3858f8d85878d6040518763ffffffff1660e01b81526004016106fd959493929190611c7e565b6000604051808303818588803b15801561071657600080fd5b505af115801561072a573d6000803e3d6000fd5b50505050505b509b9a5050505050505050505050565b6000610795826040518060400160405280602081526020017f5361666545524332303a206c6f772d6c6576656c2063616c6c206661696c6564815250856001600160a01b0316610fa99092919063ffffffff16565b80519091501561081257808060200190518101906107b39190611cc0565b6108125760405162461bcd60e51b815260206004820152602a60248201527f5361666545524332303a204552433230206f7065726174696f6e20646964206e6044820152691bdd081cdd58d8d9595960b21b6064820152608401610236565b505050565b600080600184600681111561082e5761082e61157d565b141561095c57826001600160a01b03166382980dc46040518163ffffffff1660e01b815260040160206040518083038186803b15801561086d57600080fd5b505afa158015610881573d6000803e3d6000fd5b505050506040513d601f19601f820116820180604052508101906108a59190611cdd565b90506108bb6001600160a01b038a16828a610fc2565b60405163a5977fbb60e01b81526001600160a01b038b811660048301528a81166024830152604482018a90526001600160401b03808a1660648401528816608483015263ffffffff871660a483015282169063a5977fbb9060c401600060405180830381600087803b15801561093057600080fd5b505af1158015610944573d6000803e3d6000fd5b505050506109558a8a8a8a8a611083565b9150610f9c565b60028460068111156109705761097061157d565b1415610a7057826001600160a01b031663d8257d176040518163ffffffff1660e01b815260040160206040518083038186803b1580156109af57600080fd5b505afa1580156109c3573d6000803e3d6000fd5b505050506040513d601f19601f820116820180604052508101906109e79190611cdd565b90506109fd6001600160a01b038a16828a610fc2565b806001600160a01b031663234636248a8a8a8e8b6040518663ffffffff1660e01b8152600401610a31959493929190611cfa565b600060405180830381600087803b158015610a4b57600080fd5b505af1158015610a5f573d6000803e3d6000fd5b505050506109558a8a8a8a8a611106565b6003846006811115610a8457610a8461157d565b1415610c1557826001600160a01b031663dfa2dbaf6040518163ffffffff1660e01b815260040160206040518083038186803b158015610ac357600080fd5b505afa158015610ad7573d6000803e3d6000fd5b505050506040513d601f19601f82011682018060405250810190610afb9190611cdd565b9050610b116001600160a01b038a16828a610fc2565b604051636f3c863f60e11b81526001600160a01b038a81166004830152602482018a90528b811660448301526001600160401b038816606483015282169063de790c7e90608401600060405180830381600087803b158015610b7257600080fd5b505af1158015610b86573d6000803e3d6000fd5b50610ba0925050506001600160a01b038a1682600061116f565b604080516001600160601b031930606090811b82166020808501919091528d821b83166034850152604884018d9052908e901b90911660688301526001600160c01b031960c08a811b8216607c85015246901b1660848301528251808303606c018152608c9092019092528051910120610955565b6004846006811115610c2957610c2961157d565b1415610d3c57826001600160a01b031663c66a9c5a6040518163ffffffff1660e01b815260040160206040518083038186803b158015610c6857600080fd5b505afa158015610c7c573d6000803e3d6000fd5b505050506040513d601f19601f82011682018060405250810190610ca09190611cdd565b9050610cb66001600160a01b038a16828a610fc2565b806001600160a01b031663234636248a8a8a8e8b6040518663ffffffff1660e01b8152600401610cea959493929190611cfa565b602060405180830381600087803b158015610d0457600080fd5b505af1158015610d18573d6000803e3d6000fd5b505050506040513d601f19601f820116820180604052508101906109559190611afc565b6005846006811115610d5057610d5061157d565b1415610e7f57826001600160a01b03166395b12c276040518163ffffffff1660e01b815260040160206040518083038186803b158015610d8f57600080fd5b505afa158015610da3573d6000803e3d6000fd5b505050506040513d601f19601f82011682018060405250810190610dc79190611cdd565b9050610ddd6001600160a01b038a16828a610fc2565b806001600160a01b031663a00293018a8a8a8e8b6040518663ffffffff1660e01b8152600401610e11959493929190611cfa565b602060405180830381600087803b158015610e2b57600080fd5b505af1158015610e3f573d6000803e3d6000fd5b505050506040513d601f19601f82011682018060405250810190610e639190611afc565b9150610e7a6001600160a01b038a1682600061116f565b610f9c565b6006846006811115610e9357610e9361157d565b1415610f5457826001600160a01b03166395b12c276040518163ffffffff1660e01b815260040160206040518083038186803b158015610ed257600080fd5b505afa158015610ee6573d6000803e3d6000fd5b505050506040513d601f19601f82011682018060405250810190610f0a9190611cdd565b9050610f206001600160a01b038a16828a610fc2565b806001600160a01b0316639e422c338a8a8a8e8b6040518663ffffffff1660e01b8152600401610e11959493929190611cfa565b60405162461bcd60e51b815260206004820152601960248201527f6272696467652074797065206e6f7420737570706f72746564000000000000006044820152606401610236565b9850989650505050505050565b6060610fb88484600085611293565b90505b9392505050565b604051636eb1769f60e11b81523060048201526001600160a01b038381166024830152600091839186169063dd62ed3e9060440160206040518083038186803b15801561100e57600080fd5b505afa158015611022573d6000803e3d6000fd5b505050506040513d601f19601f820116820180604052508101906110469190611afc565b6110509190611d35565b6040516001600160a01b0385166024820152604481018290529091506106a190859063095ea7b360e01b9060640161066a565b6040516001600160601b031930606090811b8216602084015287811b8216603484015286901b166048820152605c81018490526001600160c01b031960c084811b8216607c84015283811b8216608484015246901b16608c8201526000906094015b60405160208183030381529060405280519060200120905095945050505050565b6040516001600160601b031930606090811b8216602084015286811b82166034840152604883018690526001600160c01b031960c086811b821660688601529189901b909216607084015283811b8216608484015246901b16608c8201526000906094016110e5565b8015806111f85750604051636eb1769f60e11b81523060048201526001600160a01b03838116602483015284169063dd62ed3e9060440160206040518083038186803b1580156111be57600080fd5b505afa1580156111d2573d6000803e3d6000fd5b505050506040513d601f19601f820116820180604052508101906111f69190611afc565b155b6112635760405162461bcd60e51b815260206004820152603660248201527f5361666545524332303a20617070726f76652066726f6d206e6f6e2d7a65726f60448201527520746f206e6f6e2d7a65726f20616c6c6f77616e636560501b6064820152608401610236565b6040516001600160a01b03831660248201526044810182905261081290849063095ea7b360e01b9060640161066a565b6060824710156112f45760405162461bcd60e51b815260206004820152602660248201527f416464726573733a20696e73756666696369656e742062616c616e636520666f6044820152651c8818d85b1b60d21b6064820152608401610236565b6001600160a01b0385163b61134b5760405162461bcd60e51b815260206004820152601d60248201527f416464726573733a2063616c6c20746f206e6f6e2d636f6e74726163740000006044820152606401610236565b600080866001600160a01b031685876040516113679190611d5b565b60006040518083038185875af1925050503d80600081146113a4576040519150601f19603f3d011682016040523d82523d6000602084013e6113a9565b606091505b50915091506113b98282866113c4565b979650505050505050565b606083156113d3575081610fbb565b8251156113e35782518084602001fd5b8160405162461bcd60e51b81526004016102369190611ae9565b828054828255906000526020600020908101928215611452579160200282015b8281111561145257825182546001600160a01b0319166001600160a01b0390911617825560209092019160019091019061141d565b5061145e92915061149d565b5090565b828054828255906000526020600020908101928215611452579160200282015b82811115611452578251825591602001919060010190611482565b5b8082111561145e576000815560010161149e565b6001600160a01b03811681146114c757600080fd5b50565b80356114d5816114b2565b919050565b60008083601f8401126114ec57600080fd5b5081356001600160401b0381111561150357600080fd5b60208301915083602082850101111561151b57600080fd5b9250929050565b6000806000806060858703121561153857600080fd5b8435611543816114b2565b93506020850135925060408501356001600160401b0381111561156557600080fd5b611571878288016114da565b95989497509550505050565b634e487b7160e01b600052602160045260246000fd5b60208101600383106115b557634e487b7160e01b600052602160045260246000fd5b91905290565b6001600160401b03811681146114c757600080fd5b803563ffffffff811681146114d557600080fd5b600080600080600060a086880312156115fc57600080fd5b8535611607816114b2565b94506020860135611617816114b2565b935060408601359250606086013561162e816115bb565b915061163c608087016115d0565b90509295509295909350565b634e487b7160e01b600052604160045260246000fd5b604051608081016001600160401b038111828210171561168057611680611648565b60405290565b604051601f8201601f191681016001600160401b03811182821017156116ae576116ae611648565b604052919050565b80151581146114c757600080fd5b6000606082840312156116d657600080fd5b604051606081018181106001600160401b03821117156116f8576116f8611648565b6040528235611706816116b6565b8152611714602084016115d0565b60208201526040830135611727816114b2565b60408201529392505050565b60005b8381101561174e578181015183820152602001611736565b838111156106a15750506000910152565b60008151808452611777816020860160208601611733565b601f01601f19169290920160200192915050565b828152604060208201526000610fb8604083018461175f565b600080600080600080600060c0888a0312156117bf57600080fd5b87356117ca816114b2565b965060208801356117da816114b2565b95506040880135945060608801356117f1816115bb565b935060808801356001600160401b0381111561180c57600080fd5b6118188a828b016114da565b90945092505060a088013561182c816114b2565b8091505092959891949750929550565b600080600080600060a0868803121561185457600080fd5b853561185f816114b2565b9450602086810135611870816114b2565b9450604087013593506060870135611887816115bb565b925060808701356001600160401b03808211156118a357600080fd5b818901915089601f8301126118b757600080fd5b8135818111156118c9576118c9611648565b6118db601f8201601f19168501611686565b91508082528a848285010111156118f157600080fd5b80848401858401376000848284010152508093505050509295509295909350565b60208082526019908201527f63616c6c6572206973206e6f74206d6573736167652062757300000000000000604082015260600190565b60006001600160401b0382111561196257611962611648565b5060051b60200190565b600082601f83011261197d57600080fd5b8135602061199261198d83611949565b611686565b82815260059290921b840181019181810190868411156119b157600080fd5b8286015b848110156119cc57803583529183019183016119b5565b509695505050505050565b600060208083850312156119ea57600080fd5b82356001600160401b0380821115611a0157600080fd5b9084019060808287031215611a1557600080fd5b611a1d61165e565b8235611a28816115bb565b81528284013582811115611a3b57600080fd5b8301601f81018813611a4c57600080fd5b8035611a5a61198d82611949565b81815260059190911b8201860190868101908a831115611a7957600080fd5b928701925b82841015611aa0578335611a91816114b2565b82529287019290870190611a7e565b8088860152505050506040830135935081841115611abd57600080fd5b611ac98785850161196c565b6040820152611ada606084016114ca565b60608201529695505050505050565b602081526000610fbb602083018461175f565b600060208284031215611b0e57600080fd5b5051919050565b80516114d5816114b2565b600082601f830112611b3157600080fd5b81516020611b4161198d83611949565b82815260059290921b84018101918181019086841115611b6057600080fd5b8286015b848110156119cc5780518352918301918301611b64565b60006020808385031215611b8e57600080fd5b82516001600160401b0380821115611ba557600080fd5b9084019060808287031215611bb957600080fd5b611bc161165e565b8251611bcc816115bb565b81528284015182811115611bdf57600080fd5b8301601f81018813611bf057600080fd5b8051611bfe61198d82611949565b81815260059190911b8201860190868101908a831115611c1d57600080fd5b928701925b82841015611c44578351611c35816114b2565b82529287019290870190611c22565b8088860152505050506040830151935081841115611c6157600080fd5b611c6d87858501611b20565b6040820152611ada60608401611b15565b6001600160a01b0386811682526001600160401b0386166020830152841660408201526060810183905260a0608082018190526000906113b99083018461175f565b600060208284031215611cd257600080fd5b8151610fbb816116b6565b600060208284031215611cef57600080fd5b8151610fbb816114b2565b6001600160a01b03958616815260208101949094526001600160401b0392831660408501529316606083015291909116608082015260a00190565b60008219821115611d5657634e487b7160e01b600052601160045260246000fd5b500190565b60008251611d6d818460208701611733565b919091019291505056fea2646970667358221220165c19c36423dc35261ec67040ddba5a20b5bb0ae249193bfcd32e6af0b5c9f364736f6c63430008090033",
  "devdoc": {
    "kind": "dev",
    "methods": {},
    "version": 1
  },
  "userdoc": {
    "kind": "user",
    "methods": {},
    "version": 1
  },
  "storageLayout": {
    "storage": [
      {
        "astId": 1824,
        "contract": "contracts/Demo.sol:Demo",
        "label": "transfer",
        "offset": 0,
        "slot": "0",
        "type": "t_struct(TransferRequest)738_storage"
      },
      {
        "astId": 1859,
        "contract": "contracts/Demo.sol:Demo",
        "label": "transfer2",
        "offset": 0,
        "slot": "4",
        "type": "t_struct(TransferRequest)738_storage"
      }
    ],
    "types": {
      "t_address": {
        "encoding": "inplace",
        "label": "address",
        "numberOfBytes": "20"
      },
      "t_array(t_address)dyn_storage": {
        "base": "t_address",
        "encoding": "dynamic_array",
        "label": "address[]",
        "numberOfBytes": "32"
      },
      "t_array(t_uint256)dyn_storage": {
        "base": "t_uint256",
        "encoding": "dynamic_array",
        "label": "uint256[]",
        "numberOfBytes": "32"
      },
      "t_struct(TransferRequest)738_storage": {
        "encoding": "inplace",
        "label": "struct IBaseStruct.TransferRequest",
        "members": [
          {
            "astId": 729,
            "contract": "contracts/Demo.sol:Demo",
            "label": "nonce",
            "offset": 0,
            "slot": "0",
            "type": "t_uint64"
          },
          {
            "astId": 732,
            "contract": "contracts/Demo.sol:Demo",
            "label": "accounts",
            "offset": 0,
            "slot": "1",
            "type": "t_array(t_address)dyn_storage"
          },
          {
            "astId": 735,
            "contract": "contracts/Demo.sol:Demo",
            "label": "amounts",
            "offset": 0,
            "slot": "2",
            "type": "t_array(t_uint256)dyn_storage"
          },
          {
            "astId": 737,
            "contract": "contracts/Demo.sol:Demo",
            "label": "sender",
            "offset": 0,
            "slot": "3",
            "type": "t_address"
          }
        ],
        "numberOfBytes": "128"
      },
      "t_uint256": {
        "encoding": "inplace",
        "label": "uint256",
        "numberOfBytes": "32"
      },
      "t_uint64": {
        "encoding": "inplace",
        "label": "uint64",
        "numberOfBytes": "8"
      }
    }
  }
}