{
  "address": "0xBC0ec5b28A574250221478a52afB9D3bc398597f",
  "abi": [
    {
      "inputs": [
        {
          "internalType": "address",
          "name": "_messageBus",
          "type": "address"
        }
      ],
      "stateMutability": "nonpayable",
      "type": "constructor"
    },
    {
      "anonymous": false,
      "inputs": [
        {
          "indexed": false,
          "internalType": "bytes32",
          "name": "transferId",
          "type": "bytes32"
        },
        {
          "indexed": false,
          "internalType": "address",
          "name": "sender",
          "type": "address"
        },
        {
          "indexed": false,
          "internalType": "address",
          "name": "token",
          "type": "address"
        },
        {
          "indexed": false,
          "internalType": "uint256",
          "name": "amount",
          "type": "uint256"
        },
        {
          "indexed": false,
          "internalType": "uint64",
          "name": "toChain",
          "type": "uint64"
        }
      ],
      "name": "CrossChain",
      "type": "event"
    },
    {
      "anonymous": false,
      "inputs": [
        {
          "indexed": false,
          "internalType": "bytes32",
          "name": "transferId",
          "type": "bytes32"
        }
      ],
      "name": "Send",
      "type": "event"
    },
    {
      "anonymous": false,
      "inputs": [
        {
          "indexed": false,
          "internalType": "address",
          "name": "sender",
          "type": "address"
        },
        {
          "indexed": false,
          "internalType": "address",
          "name": "token",
          "type": "address"
        },
        {
          "indexed": false,
          "internalType": "uint256",
          "name": "amount",
          "type": "uint256"
        }
      ],
      "name": "Transfer2Address",
      "type": "event"
    },
    {
      "stateMutability": "payable",
      "type": "fallback"
    },
    {
      "inputs": [
        {
          "internalType": "address",
          "name": "_sender",
          "type": "address"
        },
        {
          "internalType": "address",
          "name": "_token",
          "type": "address"
        },
        {
          "internalType": "uint256",
          "name": "_amount",
          "type": "uint256"
        },
        {
          "internalType": "uint64",
          "name": "_srcChainId",
          "type": "uint64"
        },
        {
          "internalType": "bytes",
          "name": "_message",
          "type": "bytes"
        },
        {
          "internalType": "address",
          "name": "",
          "type": "address"
        }
      ],
      "name": "executeMessageWithTransfer",
      "outputs": [
        {
          "internalType": "enum IBaseStruct.ExecutionStatus",
          "name": "",
          "type": "uint8"
        }
      ],
      "stateMutability": "nonpayable",
      "type": "function"
    },
    {
      "inputs": [
        {
          "internalType": "address",
          "name": "",
          "type": "address"
        },
        {
          "internalType": "address",
          "name": "_token",
          "type": "address"
        },
        {
          "internalType": "uint256",
          "name": "_amount",
          "type": "uint256"
        },
        {
          "internalType": "uint64",
          "name": "",
          "type": "uint64"
        },
        {
          "internalType": "bytes",
          "name": "_message",
          "type": "bytes"
        }
      ],
      "name": "executeMessageWithTransferFallback",
      "outputs": [
        {
          "internalType": "enum IBaseStruct.ExecutionStatus",
          "name": "",
          "type": "uint8"
        }
      ],
      "stateMutability": "payable",
      "type": "function"
    },
    {
      "inputs": [
        {
          "internalType": "address",
          "name": "_token",
          "type": "address"
        },
        {
          "internalType": "uint256",
          "name": "_amount",
          "type": "uint256"
        },
        {
          "internalType": "bytes",
          "name": "_message",
          "type": "bytes"
        }
      ],
      "name": "executeMessageWithTransferRefund",
      "outputs": [
        {
          "internalType": "enum IBaseStruct.ExecutionStatus",
          "name": "",
          "type": "uint8"
        }
      ],
      "stateMutability": "payable",
      "type": "function"
    },
    {
      "inputs": [
        {
          "components": [
            {
              "internalType": "uint8",
              "name": "_type",
              "type": "uint8"
            },
            {
              "internalType": "bool",
              "name": "back",
              "type": "bool"
            },
            {
              "internalType": "address",
              "name": "swapFromToken",
              "type": "address"
            },
            {
              "internalType": "bytes",
              "name": "swapData",
              "type": "bytes"
            },
            {
              "internalType": "address",
              "name": "swapToToken",
              "type": "address"
            },
            {
              "internalType": "uint32",
              "name": "maxSlippage",
              "type": "uint32"
            },
            {
              "internalType": "address",
              "name": "to",
              "type": "address"
            }
          ],
          "internalType": "struct IBaseStruct.TransferData",
          "name": "_data",
          "type": "tuple"
        }
      ],
      "name": "getFee",
      "outputs": [
        {
          "internalType": "uint256",
          "name": "_fee",
          "type": "uint256"
        },
        {
          "internalType": "bytes",
          "name": "_sendData",
          "type": "bytes"
        }
      ],
      "stateMutability": "view",
      "type": "function"
    },
    {
      "inputs": [],
      "name": "messageBus",
      "outputs": [
        {
          "internalType": "address",
          "name": "",
          "type": "address"
        }
      ],
      "stateMutability": "view",
      "type": "function"
    },
    {
      "inputs": [
        {
          "internalType": "address",
          "name": "_receiver",
          "type": "address"
        },
        {
          "internalType": "address",
          "name": "_token",
          "type": "address"
        },
        {
          "internalType": "uint256",
          "name": "_amount",
          "type": "uint256"
        },
        {
          "internalType": "uint64",
          "name": "_dstChainId",
          "type": "uint64"
        },
        {
          "internalType": "uint32",
          "name": "_maxSlippage",
          "type": "uint32"
        },
        {
          "internalType": "address",
          "name": "_swapFrom",
          "type": "address"
        },
        {
          "internalType": "bytes",
          "name": "_swapData",
          "type": "bytes"
        },
        {
          "internalType": "address",
          "name": "_swapTo",
          "type": "address"
        }
      ],
      "name": "send",
      "outputs": [],
      "stateMutability": "payable",
      "type": "function"
    },
    {
      "inputs": [],
      "name": "transfer2",
      "outputs": [
        {
          "internalType": "uint64",
          "name": "nonce",
          "type": "uint64"
        },
        {
          "internalType": "address",
          "name": "sender",
          "type": "address"
        }
      ],
      "stateMutability": "view",
      "type": "function"
    },
    {
      "stateMutability": "payable",
      "type": "receive"
    }
  ],
  "transactionHash": "0xb4b5f33c3c9250709c297d1537732cfb73619984dfcf8a99ab6453a0e26c1041",
  "args": [
    "0xAd204986D6cB67A5Bc76a3CB8974823F43Cb9AAA"
  ],
  "numDeployments": 1,
  "solcInputHash": "628eaf6e329e5be6b9f08970db9be4d9",
  "bytecode": "0x60a060405234801561001057600080fd5b50604051620022293803806200222983398101604081905261003191610042565b6001600160a01b0316608052610072565b60006020828403121561005457600080fd5b81516001600160a01b038116811461006b57600080fd5b9392505050565b60805161216a620000bf60003960008181610154015281816101c10152818161024b01528181610344015281816103df015281816106ae015281816107f90152610874015261216a6000f3fe60806040526004361061006e5760003560e01c8063859e94541161004b578063859e945414610114578063a1a227fa14610142578063e85a6c8a1461018e578063f00f39ce146101a157005b806320be95f214610077578063248c44e8146100a05780637cd2bffc146100f457005b3661007557005b005b61008a610085366004611748565b6101b4565b60405161009791906117b9565b60405180910390f35b3480156100ac57600080fd5b506000546003546100cd916001600160401b0316906001600160a01b031682565b604080516001600160401b0390931683526001600160a01b03909116602083015201610097565b34801561010057600080fd5b5061008a61010f3660046117f6565b61023e565b34801561012057600080fd5b5061013461012f3660046119cb565b610672565b604051610097929190611af5565b34801561014e57600080fd5b506101767f000000000000000000000000000000000000000000000000000000000000000081565b6040516001600160a01b039091168152602001610097565b61007561019c366004611b0e565b61073a565b61008a6101af366004611bc4565b610867565b6000336001600160a01b037f000000000000000000000000000000000000000000000000000000000000000016146102075760405162461bcd60e51b81526004016101fe90611c42565b60405180910390fd5b600061021583850185611d07565b6060810151909150610232906001600160a01b03881690876108f1565b50600195945050505050565b6000336001600160a01b037f000000000000000000000000000000000000000000000000000000000000000016146102885760405162461bcd60e51b81526004016101fe90611c42565b6000610296848601866119cb565b9050806000015160ff166001141561056e576020810151879015610475576040805160e08101825260028152600060208083018290528284018290528351828152808201855260608401526080830182905260a08681015163ffffffff169084015260c0808701516001600160a01b0316908401529251909261031a929101611e19565b60408051601f198184030181529082905263299aee5160e11b825291506000906001600160a01b037f00000000000000000000000000000000000000000000000000000000000000001690635335dca290610379908590600401611ea6565b60206040518083038186803b15801561039157600080fd5b505afa1580156103a5573d6000803e3d6000fd5b505050506040513d601f19601f820116820180604052508101906103c99190611eb9565b905060006104048d8d8d8d428a60a001518960017f00000000000000000000000000000000000000000000000000000000000000008b610959565b60c0860151604080518381526001600160a01b039283166020820152918f1690820152606081018d90526001600160401b038c1660808201529091507f41dd76b21aac667802867bce2e2dd73ddc80b1ebb981a7b1aadd7a665d79c36d9060a00160405180910390a1505050610563565b608082015160c083015160405163a9059cbb60e01b81526001600160a01b0391821660048201526024810184905291169063a9059cbb90604401602060405180830381600087803b1580156104c957600080fd5b505af11580156104dd573d6000803e3d6000fd5b505050506040513d601f19601f820116820180604052508101906105019190611ed2565b5060c08201516080830151604080516001600160a01b03938416815292909116602083015281018290527f132a65941a6f3cebe4ba9c9a5d39d0283a7666cfa2eb2d0be33057b3fcb625d59060600160405180910390a1600192505050610667565b600192505050610667565b806000015160ff16600214156106615760c081015160405163a9059cbb60e01b81526001600160a01b039182166004820152602481018990529089169063a9059cbb90604401602060405180830381600087803b1580156105ce57600080fd5b505af11580156105e2573d6000803e3d6000fd5b505050506040513d601f19601f820116820180604052508101906106069190611ed2565b5060c0810151604080516001600160a01b039283168152918a16602083015281018890527f132a65941a6f3cebe4ba9c9a5d39d0283a7666cfa2eb2d0be33057b3fcb625d59060600160405180910390a16001915050610667565b60009150505b979650505050505050565b60006060826040516020016106879190611e19565b60408051601f198184030181529082905263299aee5160e11b825291506001600160a01b037f00000000000000000000000000000000000000000000000000000000000000001690635335dca2906106e3908490600401611ea6565b60206040518083038186803b1580156106fb57600080fd5b505afa15801561070f573d6000803e3d6000fd5b505050506040513d601f19601f820116820180604052508101906107339190611eb9565b9150915091565b61074f6001600160a01b0388163330896109f2565b6040805160e081018252600180825260208201526001600160a01b038086169282019290925260608101849052908216608082015263ffffffff851660a08201523360c08201526000806107a283610672565b91509150813410156107e95760405162461bcd60e51b815260206004820152601060248201526f496e73756666696369656e742066656560801b60448201526064016101fe565b600061081e8c8c8c8c428d8860017f00000000000000000000000000000000000000000000000000000000000000008c610959565b90507f086a0b34f7ece83090c3c5316bf102eec3c65cfd255dc74a383b55e19eb539ac8160405161085191815260200190565b60405180910390a1505050505050505050505050565b6000336001600160a01b037f000000000000000000000000000000000000000000000000000000000000000016146108b15760405162461bcd60e51b81526004016101fe90611c42565b6000828060200190518101906108c79190611f55565b60608101519091506108e4906001600160a01b03881690876108f1565b5060019695505050505050565b6040516001600160a01b03831660248201526044810182905261095490849063a9059cbb60e01b906064015b60408051601f198184030181529190526020810180516001600160e01b03166001600160e01b031990931692909217909152610a30565b505050565b600080600061096e8d8d8d8d8d8d8c8c610b02565b88519193509150156109e257846001600160a01b0316634289fbb3858f8d85878d6040518763ffffffff1660e01b81526004016109af959493929190612058565b6000604051808303818588803b1580156109c857600080fd5b505af11580156109dc573d6000803e3d6000fd5b50505050505b509b9a5050505050505050505050565b6040516001600160a01b0380851660248301528316604482015260648101829052610a2a9085906323b872dd60e01b9060840161091d565b50505050565b6000610a85826040518060400160405280602081526020017f5361666545524332303a206c6f772d6c6576656c2063616c6c206661696c6564815250856001600160a01b03166112949092919063ffffffff16565b8051909150156109545780806020019051810190610aa39190611ed2565b6109545760405162461bcd60e51b815260206004820152602a60248201527f5361666545524332303a204552433230206f7065726174696f6e20646964206e6044820152691bdd081cdd58d8d9595960b21b60648201526084016101fe565b6000806001846006811115610b1957610b196117a3565b1415610c4757826001600160a01b03166382980dc46040518163ffffffff1660e01b815260040160206040518083038186803b158015610b5857600080fd5b505afa158015610b6c573d6000803e3d6000fd5b505050506040513d601f19601f82011682018060405250810190610b90919061209a565b9050610ba66001600160a01b038a16828a6112ad565b60405163a5977fbb60e01b81526001600160a01b038b811660048301528a81166024830152604482018a90526001600160401b03808a1660648401528816608483015263ffffffff871660a483015282169063a5977fbb9060c401600060405180830381600087803b158015610c1b57600080fd5b505af1158015610c2f573d6000803e3d6000fd5b50505050610c408a8a8a8a8a61136e565b9150611287565b6002846006811115610c5b57610c5b6117a3565b1415610d5b57826001600160a01b031663d8257d176040518163ffffffff1660e01b815260040160206040518083038186803b158015610c9a57600080fd5b505afa158015610cae573d6000803e3d6000fd5b505050506040513d601f19601f82011682018060405250810190610cd2919061209a565b9050610ce86001600160a01b038a16828a6112ad565b806001600160a01b031663234636248a8a8a8e8b6040518663ffffffff1660e01b8152600401610d1c9594939291906120b7565b600060405180830381600087803b158015610d3657600080fd5b505af1158015610d4a573d6000803e3d6000fd5b50505050610c408a8a8a8a8a6113f1565b6003846006811115610d6f57610d6f6117a3565b1415610f0057826001600160a01b031663dfa2dbaf6040518163ffffffff1660e01b815260040160206040518083038186803b158015610dae57600080fd5b505afa158015610dc2573d6000803e3d6000fd5b505050506040513d601f19601f82011682018060405250810190610de6919061209a565b9050610dfc6001600160a01b038a16828a6112ad565b604051636f3c863f60e11b81526001600160a01b038a81166004830152602482018a90528b811660448301526001600160401b038816606483015282169063de790c7e90608401600060405180830381600087803b158015610e5d57600080fd5b505af1158015610e71573d6000803e3d6000fd5b50610e8b925050506001600160a01b038a1682600061145a565b604080516001600160601b031930606090811b82166020808501919091528d821b83166034850152604884018d9052908e901b90911660688301526001600160c01b031960c08a811b8216607c85015246901b1660848301528251808303606c018152608c9092019092528051910120610c40565b6004846006811115610f1457610f146117a3565b141561102757826001600160a01b031663c66a9c5a6040518163ffffffff1660e01b815260040160206040518083038186803b158015610f5357600080fd5b505afa158015610f67573d6000803e3d6000fd5b505050506040513d601f19601f82011682018060405250810190610f8b919061209a565b9050610fa16001600160a01b038a16828a6112ad565b806001600160a01b031663234636248a8a8a8e8b6040518663ffffffff1660e01b8152600401610fd59594939291906120b7565b602060405180830381600087803b158015610fef57600080fd5b505af1158015611003573d6000803e3d6000fd5b505050506040513d601f19601f82011682018060405250810190610c409190611eb9565b600584600681111561103b5761103b6117a3565b141561116a57826001600160a01b03166395b12c276040518163ffffffff1660e01b815260040160206040518083038186803b15801561107a57600080fd5b505afa15801561108e573d6000803e3d6000fd5b505050506040513d601f19601f820116820180604052508101906110b2919061209a565b90506110c86001600160a01b038a16828a6112ad565b806001600160a01b031663a00293018a8a8a8e8b6040518663ffffffff1660e01b81526004016110fc9594939291906120b7565b602060405180830381600087803b15801561111657600080fd5b505af115801561112a573d6000803e3d6000fd5b505050506040513d601f19601f8201168201806040525081019061114e9190611eb9565b91506111656001600160a01b038a1682600061145a565b611287565b600684600681111561117e5761117e6117a3565b141561123f57826001600160a01b03166395b12c276040518163ffffffff1660e01b815260040160206040518083038186803b1580156111bd57600080fd5b505afa1580156111d1573d6000803e3d6000fd5b505050506040513d601f19601f820116820180604052508101906111f5919061209a565b905061120b6001600160a01b038a16828a6112ad565b806001600160a01b0316639e422c338a8a8a8e8b6040518663ffffffff1660e01b81526004016110fc9594939291906120b7565b60405162461bcd60e51b815260206004820152601960248201527f6272696467652074797065206e6f7420737570706f727465640000000000000060448201526064016101fe565b9850989650505050505050565b60606112a3848460008561157e565b90505b9392505050565b604051636eb1769f60e11b81523060048201526001600160a01b038381166024830152600091839186169063dd62ed3e9060440160206040518083038186803b1580156112f957600080fd5b505afa15801561130d573d6000803e3d6000fd5b505050506040513d601f19601f820116820180604052508101906113319190611eb9565b61133b91906120f2565b6040516001600160a01b038516602482015260448101829052909150610a2a90859063095ea7b360e01b9060640161091d565b6040516001600160601b031930606090811b8216602084015287811b8216603484015286901b166048820152605c81018490526001600160c01b031960c084811b8216607c84015283811b8216608484015246901b16608c8201526000906094015b60405160208183030381529060405280519060200120905095945050505050565b6040516001600160601b031930606090811b8216602084015286811b82166034840152604883018690526001600160c01b031960c086811b821660688601529189901b909216607084015283811b8216608484015246901b16608c8201526000906094016113d0565b8015806114e35750604051636eb1769f60e11b81523060048201526001600160a01b03838116602483015284169063dd62ed3e9060440160206040518083038186803b1580156114a957600080fd5b505afa1580156114bd573d6000803e3d6000fd5b505050506040513d601f19601f820116820180604052508101906114e19190611eb9565b155b61154e5760405162461bcd60e51b815260206004820152603660248201527f5361666545524332303a20617070726f76652066726f6d206e6f6e2d7a65726f60448201527520746f206e6f6e2d7a65726f20616c6c6f77616e636560501b60648201526084016101fe565b6040516001600160a01b03831660248201526044810182905261095490849063095ea7b360e01b9060640161091d565b6060824710156115df5760405162461bcd60e51b815260206004820152602660248201527f416464726573733a20696e73756666696369656e742062616c616e636520666f6044820152651c8818d85b1b60d21b60648201526084016101fe565b6001600160a01b0385163b6116365760405162461bcd60e51b815260206004820152601d60248201527f416464726573733a2063616c6c20746f206e6f6e2d636f6e747261637400000060448201526064016101fe565b600080866001600160a01b031685876040516116529190612118565b60006040518083038185875af1925050503d806000811461168f576040519150601f19603f3d011682016040523d82523d6000602084013e611694565b606091505b5091509150610667828286606083156116ae5750816112a6565b8251156116be5782518084602001fd5b8160405162461bcd60e51b81526004016101fe9190611ea6565b6001600160a01b03811681146116ed57600080fd5b50565b80356116fb816116d8565b919050565b60008083601f84011261171257600080fd5b5081356001600160401b0381111561172957600080fd5b60208301915083602082850101111561174157600080fd5b9250929050565b6000806000806060858703121561175e57600080fd5b8435611769816116d8565b93506020850135925060408501356001600160401b0381111561178b57600080fd5b61179787828801611700565b95989497509550505050565b634e487b7160e01b600052602160045260246000fd5b60208101600383106117db57634e487b7160e01b600052602160045260246000fd5b91905290565b6001600160401b03811681146116ed57600080fd5b600080600080600080600060c0888a03121561181157600080fd5b873561181c816116d8565b9650602088013561182c816116d8565b9550604088013594506060880135611843816117e1565b935060808801356001600160401b0381111561185e57600080fd5b61186a8a828b01611700565b90945092505060a088013561187e816116d8565b8091505092959891949750929550565b634e487b7160e01b600052604160045260246000fd5b60405160e081016001600160401b03811182821017156118c6576118c661188e565b60405290565b604051608081016001600160401b03811182821017156118c6576118c661188e565b604051601f8201601f191681016001600160401b03811182821017156119165761191661188e565b604052919050565b803560ff811681146116fb57600080fd5b80151581146116ed57600080fd5b80356116fb8161192f565b600082601f83011261195957600080fd5b81356001600160401b038111156119725761197261188e565b611985601f8201601f19166020016118ee565b81815284602083860101111561199a57600080fd5b816020850160208301376000918101602001919091529392505050565b803563ffffffff811681146116fb57600080fd5b6000602082840312156119dd57600080fd5b81356001600160401b03808211156119f457600080fd5b9083019060e08286031215611a0857600080fd5b611a106118a4565b611a198361191e565b8152611a276020840161193d565b6020820152611a38604084016116f0565b6040820152606083013582811115611a4f57600080fd5b611a5b87828601611948565b606083015250611a6d608084016116f0565b6080820152611a7e60a084016119b7565b60a0820152611a8f60c084016116f0565b60c082015295945050505050565b60005b83811015611ab8578181015183820152602001611aa0565b83811115610a2a5750506000910152565b60008151808452611ae1816020860160208601611a9d565b601f01601f19169290920160200192915050565b8281526040602082015260006112a36040830184611ac9565b600080600080600080600080610100898b031215611b2b57600080fd5b8835611b36816116d8565b97506020890135611b46816116d8565b9650604089013595506060890135611b5d816117e1565b9450611b6b60808a016119b7565b935060a0890135611b7b816116d8565b925060c08901356001600160401b03811115611b9657600080fd5b611ba28b828c01611948565b92505060e0890135611bb3816116d8565b809150509295985092959890939650565b600080600080600060a08688031215611bdc57600080fd5b8535611be7816116d8565b94506020860135611bf7816116d8565b9350604086013592506060860135611c0e816117e1565b915060808601356001600160401b03811115611c2957600080fd5b611c3588828901611948565b9150509295509295909350565b60208082526019908201527f63616c6c6572206973206e6f74206d6573736167652062757300000000000000604082015260600190565b60006001600160401b03821115611c9257611c9261188e565b5060051b60200190565b600082601f830112611cad57600080fd5b81356020611cc2611cbd83611c79565b6118ee565b82815260059290921b84018101918181019086841115611ce157600080fd5b8286015b84811015611cfc5780358352918301918301611ce5565b509695505050505050565b60006020808385031215611d1a57600080fd5b82356001600160401b0380821115611d3157600080fd5b9084019060808287031215611d4557600080fd5b611d4d6118cc565b8235611d58816117e1565b81528284013582811115611d6b57600080fd5b8301601f81018813611d7c57600080fd5b8035611d8a611cbd82611c79565b81815260059190911b8201860190868101908a831115611da957600080fd5b928701925b82841015611dd0578335611dc1816116d8565b82529287019290870190611dae565b8088860152505050506040830135935081841115611ded57600080fd5b611df987858501611c9c565b6040820152611e0a606084016116f0565b60608201529695505050505050565b6020815260ff82511660208201526020820151151560408201526000604083015160018060a01b0380821660608501526060850151915060e06080850152611e65610100850183611ac9565b91508060808601511660a08501525063ffffffff60a08501511660c084015260c0840151611e9e60e08501826001600160a01b03169052565b509392505050565b6020815260006112a66020830184611ac9565b600060208284031215611ecb57600080fd5b5051919050565b600060208284031215611ee457600080fd5b81516112a68161192f565b80516116fb816116d8565b600082601f830112611f0b57600080fd5b81516020611f1b611cbd83611c79565b82815260059290921b84018101918181019086841115611f3a57600080fd5b8286015b84811015611cfc5780518352918301918301611f3e565b60006020808385031215611f6857600080fd5b82516001600160401b0380821115611f7f57600080fd5b9084019060808287031215611f9357600080fd5b611f9b6118cc565b8251611fa6816117e1565b81528284015182811115611fb957600080fd5b8301601f81018813611fca57600080fd5b8051611fd8611cbd82611c79565b81815260059190911b8201860190868101908a831115611ff757600080fd5b928701925b8284101561201e57835161200f816116d8565b82529287019290870190611ffc565b808886015250505050604083015193508184111561203b57600080fd5b61204787858501611efa565b6040820152611e0a60608401611eef565b6001600160a01b0386811682526001600160401b0386166020830152841660408201526060810183905260a06080820181905260009061066790830184611ac9565b6000602082840312156120ac57600080fd5b81516112a6816116d8565b6001600160a01b03958616815260208101949094526001600160401b0392831660408501529316606083015291909116608082015260a00190565b6000821982111561211357634e487b7160e01b600052601160045260246000fd5b500190565b6000825161212a818460208701611a9d565b919091019291505056fea2646970667358221220b0926c8630163527df74ca096b63493ebf7c18e44e7dfd0f94b475549fa7f15b64736f6c63430008090033",
  "devdoc": {
    "kind": "dev",
    "methods": {},
    "version": 1
  },
  "userdoc": {
    "kind": "user",
    "methods": {},
    "version": 1
  },
  "storageLayout": {
    "storage": [
      {
        "astId": 2015,
        "contract": "contracts/Demo.sol:Demo",
        "label": "transfer2",
        "offset": 0,
        "slot": "0",
        "type": "t_struct(TransferRequest)748_storage"
      }
    ],
    "types": {
      "t_address": {
        "encoding": "inplace",
        "label": "address",
        "numberOfBytes": "20"
      },
      "t_array(t_address)dyn_storage": {
        "base": "t_address",
        "encoding": "dynamic_array",
        "label": "address[]",
        "numberOfBytes": "32"
      },
      "t_array(t_uint256)dyn_storage": {
        "base": "t_uint256",
        "encoding": "dynamic_array",
        "label": "uint256[]",
        "numberOfBytes": "32"
      },
      "t_struct(TransferRequest)748_storage": {
        "encoding": "inplace",
        "label": "struct IBaseStruct.TransferRequest",
        "members": [
          {
            "astId": 739,
            "contract": "contracts/Demo.sol:Demo",
            "label": "nonce",
            "offset": 0,
            "slot": "0",
            "type": "t_uint64"
          },
          {
            "astId": 742,
            "contract": "contracts/Demo.sol:Demo",
            "label": "accounts",
            "offset": 0,
            "slot": "1",
            "type": "t_array(t_address)dyn_storage"
          },
          {
            "astId": 745,
            "contract": "contracts/Demo.sol:Demo",
            "label": "amounts",
            "offset": 0,
            "slot": "2",
            "type": "t_array(t_uint256)dyn_storage"
          },
          {
            "astId": 747,
            "contract": "contracts/Demo.sol:Demo",
            "label": "sender",
            "offset": 0,
            "slot": "3",
            "type": "t_address"
          }
        ],
        "numberOfBytes": "128"
      },
      "t_uint256": {
        "encoding": "inplace",
        "label": "uint256",
        "numberOfBytes": "32"
      },
      "t_uint64": {
        "encoding": "inplace",
        "label": "uint64",
        "numberOfBytes": "8"
      }
    }
  }
}