{
  "address": "0xc7442b4a57ECF3abc82Ee695fF9fD47FCf36AF10",
  "abi": [
    {
      "inputs": [
        {
          "internalType": "address",
          "name": "_messageBus",
          "type": "address"
        }
      ],
      "stateMutability": "nonpayable",
      "type": "constructor"
    },
    {
      "stateMutability": "payable",
      "type": "fallback"
    },
    {
      "inputs": [
        {
          "internalType": "address",
          "name": "_sender",
          "type": "address"
        },
        {
          "internalType": "address",
          "name": "_token",
          "type": "address"
        },
        {
          "internalType": "uint256",
          "name": "_amount",
          "type": "uint256"
        },
        {
          "internalType": "uint64",
          "name": "_srcChainId",
          "type": "uint64"
        },
        {
          "internalType": "bytes",
          "name": "_message",
          "type": "bytes"
        }
      ],
      "name": "executeMessageWithTransferFallback",
      "outputs": [
        {
          "internalType": "enum IBatchTransfer.ExecutionStatus",
          "name": "",
          "type": "uint8"
        }
      ],
      "stateMutability": "payable",
      "type": "function"
    },
    {
      "inputs": [
        {
          "internalType": "address",
          "name": "",
          "type": "address"
        },
        {
          "internalType": "uint256",
          "name": "",
          "type": "uint256"
        },
        {
          "internalType": "bytes",
          "name": "_message",
          "type": "bytes"
        }
      ],
      "name": "executeMessageWithTransferRefund",
      "outputs": [
        {
          "internalType": "enum IBatchTransfer.ExecutionStatus",
          "name": "",
          "type": "uint8"
        }
      ],
      "stateMutability": "payable",
      "type": "function"
    },
    {
      "inputs": [
        {
          "internalType": "uint256",
          "name": "_dataAmount",
          "type": "uint256"
        }
      ],
      "name": "getFee",
      "outputs": [
        {
          "internalType": "uint256",
          "name": "",
          "type": "uint256"
        },
        {
          "internalType": "bytes",
          "name": "",
          "type": "bytes"
        }
      ],
      "stateMutability": "view",
      "type": "function"
    },
    {
      "inputs": [
        {
          "internalType": "address",
          "name": "_receiver",
          "type": "address"
        },
        {
          "internalType": "address",
          "name": "_token",
          "type": "address"
        },
        {
          "internalType": "uint256",
          "name": "_amount",
          "type": "uint256"
        },
        {
          "internalType": "uint64",
          "name": "_dstChainId",
          "type": "uint64"
        },
        {
          "internalType": "uint64",
          "name": "_nonce",
          "type": "uint64"
        }
      ],
      "name": "getLiquidityTransferId",
      "outputs": [
        {
          "internalType": "bytes32",
          "name": "_transferId",
          "type": "bytes32"
        }
      ],
      "stateMutability": "view",
      "type": "function"
    },
    {
      "inputs": [],
      "name": "messageBus",
      "outputs": [
        {
          "internalType": "address",
          "name": "",
          "type": "address"
        }
      ],
      "stateMutability": "view",
      "type": "function"
    },
    {
      "inputs": [
        {
          "internalType": "address",
          "name": "_receiver",
          "type": "address"
        },
        {
          "internalType": "address",
          "name": "_token",
          "type": "address"
        },
        {
          "internalType": "uint256",
          "name": "_amount",
          "type": "uint256"
        },
        {
          "internalType": "uint64",
          "name": "_dstChainId",
          "type": "uint64"
        },
        {
          "internalType": "uint64",
          "name": "_nonce",
          "type": "uint64"
        },
        {
          "internalType": "uint32",
          "name": "_maxSlippage",
          "type": "uint32"
        },
        {
          "internalType": "uint256",
          "name": "_dataAmount",
          "type": "uint256"
        }
      ],
      "name": "send",
      "outputs": [],
      "stateMutability": "payable",
      "type": "function"
    },
    {
      "inputs": [],
      "name": "transfer",
      "outputs": [
        {
          "internalType": "uint64",
          "name": "nonce",
          "type": "uint64"
        },
        {
          "internalType": "address",
          "name": "sender",
          "type": "address"
        }
      ],
      "stateMutability": "view",
      "type": "function"
    },
    {
      "inputs": [],
      "name": "transfer2",
      "outputs": [
        {
          "internalType": "uint64",
          "name": "nonce",
          "type": "uint64"
        },
        {
          "internalType": "address",
          "name": "sender",
          "type": "address"
        }
      ],
      "stateMutability": "view",
      "type": "function"
    },
    {
      "stateMutability": "payable",
      "type": "receive"
    }
  ],
  "transactionHash": "0x84631b7be83135aba957b8d16d2d1f805f25e0009b3fb59ae161cd872c4effff",
  "args": [
    "0xAd204986D6cB67A5Bc76a3CB8974823F43Cb9AAA"
  ],
  "numDeployments": 1,
  "solcInputHash": "a57d85cd49163a3a548c9e325349e734",
  "bytecode": "0x60a060405234801561001057600080fd5b50604051611d0e380380611d0e83398101604081905261002f91610040565b6001600160a01b0316608052610070565b60006020828403121561005257600080fd5b81516001600160a01b038116811461006957600080fd5b9392505050565b608051611c676100a76000396000818161016c015281816102070152818161033801528181610487015261058b0152611c676000f3fe6080604052600436106100795760003560e01c8063a1a227fa1161004b578063a1a227fa1461015a578063f00f39ce146101a6578063fcee45f4146101b9578063fe2f7396146101e757005b806320be95f214610082578063248c44e8146100ab57806364c2fda9146100ff5780638a4068dd1461012d57005b3661008057005b005b610095610090366004611460565b6101fa565b6040516100a291906114fe565b60405180910390f35b3480156100b757600080fd5b506004546007546100d8916001600160401b0316906001600160a01b031682565b604080516001600160401b0390931683526001600160a01b039091166020830152016100a2565b34801561010b57600080fd5b5061011f61011a36600461153b565b610312565b6040519081526020016100a2565b34801561013957600080fd5b506000546003546100d8916001600160401b0316906001600160a01b031682565b34801561016657600080fd5b5061018e7f000000000000000000000000000000000000000000000000000000000000000081565b6040516001600160a01b0390911681526020016100a2565b6100956101b4366004611611565b61032b565b3480156101c557600080fd5b506101d96101d43660046116e7565b610447565b6040516100a2929190611758565b6100806101f5366004611771565b610515565b6000336001600160a01b037f000000000000000000000000000000000000000000000000000000000000000016146102755760405162461bcd60e51b815260206004820152601960248201527863616c6c6572206973206e6f74206d6573736167652062757360381b60448201526064015b60405180910390fd5b60006102838385018561188c565b80516000805467ffffffffffffffff19166001600160401b03909216919091178155602080830151805193945084936102c0926001920190611383565b50604082015180516102dc9160028401916020909101906113e8565b5060609190910151600390910180546001600160a01b0319166001600160a01b0390921691909117905550600195945050505050565b600061032186868686866105bc565b9695505050505050565b6000336001600160a01b037f000000000000000000000000000000000000000000000000000000000000000016146103a15760405162461bcd60e51b815260206004820152601960248201527863616c6c6572206973206e6f74206d6573736167652062757360381b604482015260640161026c565b6000828060200190518101906103b79190611a04565b80516004805467ffffffffffffffff19166001600160401b03909216919091178155602080830151805193945084936103f4926005920190611383565b50604082015180516104109160028401916020909101906113e8565b5060609190910151600390910180546001600160a01b0319166001600160a01b039092169190911790555060019695505050505050565b6000606060008360405160200161046091815260200190565b60408051601f198184030181529082905263299aee5160e11b825291506001600160a01b037f00000000000000000000000000000000000000000000000000000000000000001690635335dca2906104bc908490600401611b07565b60206040518083038186803b1580156104d457600080fd5b505afa1580156104e8573d6000803e3d6000fd5b505050506040513d601f19601f8201168201806040525081019061050c9190611b1a565b94909350915050565b61052a6001600160a01b03871633308861063f565b60008061053683610447565b915091508134101561057d5760405162461bcd60e51b815260206004820152601060248201526f496e73756666696369656e742066656560801b604482015260640161026c565b6105b08989898989898760017f00000000000000000000000000000000000000000000000000000000000000008b6106b0565b50505050505050505050565b6040516001600160601b031930606090811b8216602084015287811b8216603484015286901b166048820152605c81018490526001600160c01b031960c084811b8216607c84015283811b8216608484015246901b16608c8201526000906094015b60405160208183030381529060405280519060200120905095945050505050565b6040516001600160a01b03808516602483015283166044820152606481018290526106aa9085906323b872dd60e01b906084015b60408051601f198184030181529190526020810180516001600160e01b03166001600160e01b031990931692909217909152610749565b50505050565b60008060006106c58d8d8d8d8d8d8c8c610820565b885191935091501561073957846001600160a01b0316634289fbb3858f8d85878d6040518763ffffffff1660e01b8152600401610706959493929190611b33565b6000604051808303818588803b15801561071f57600080fd5b505af1158015610733573d6000803e3d6000fd5b50505050505b509b9a5050505050505050505050565b600061079e826040518060400160405280602081526020017f5361666545524332303a206c6f772d6c6576656c2063616c6c206661696c6564815250856001600160a01b0316610fb29092919063ffffffff16565b80519091501561081b57808060200190518101906107bc9190611b75565b61081b5760405162461bcd60e51b815260206004820152602a60248201527f5361666545524332303a204552433230206f7065726174696f6e20646964206e6044820152691bdd081cdd58d8d9595960b21b606482015260840161026c565b505050565b6000806001846006811115610837576108376114e8565b141561096557826001600160a01b03166382980dc46040518163ffffffff1660e01b815260040160206040518083038186803b15801561087657600080fd5b505afa15801561088a573d6000803e3d6000fd5b505050506040513d601f19601f820116820180604052508101906108ae9190611b97565b90506108c46001600160a01b038a16828a610fcb565b60405163a5977fbb60e01b81526001600160a01b038b811660048301528a81166024830152604482018a90526001600160401b03808a1660648401528816608483015263ffffffff871660a483015282169063a5977fbb9060c401600060405180830381600087803b15801561093957600080fd5b505af115801561094d573d6000803e3d6000fd5b5050505061095e8a8a8a8a8a6105bc565b9150610fa5565b6002846006811115610979576109796114e8565b1415610a7957826001600160a01b031663d8257d176040518163ffffffff1660e01b815260040160206040518083038186803b1580156109b857600080fd5b505afa1580156109cc573d6000803e3d6000fd5b505050506040513d601f19601f820116820180604052508101906109f09190611b97565b9050610a066001600160a01b038a16828a610fcb565b806001600160a01b031663234636248a8a8a8e8b6040518663ffffffff1660e01b8152600401610a3a959493929190611bb4565b600060405180830381600087803b158015610a5457600080fd5b505af1158015610a68573d6000803e3d6000fd5b5050505061095e8a8a8a8a8a61108c565b6003846006811115610a8d57610a8d6114e8565b1415610c1e57826001600160a01b031663dfa2dbaf6040518163ffffffff1660e01b815260040160206040518083038186803b158015610acc57600080fd5b505afa158015610ae0573d6000803e3d6000fd5b505050506040513d601f19601f82011682018060405250810190610b049190611b97565b9050610b1a6001600160a01b038a16828a610fcb565b604051636f3c863f60e11b81526001600160a01b038a81166004830152602482018a90528b811660448301526001600160401b038816606483015282169063de790c7e90608401600060405180830381600087803b158015610b7b57600080fd5b505af1158015610b8f573d6000803e3d6000fd5b50610ba9925050506001600160a01b038a168260006110f5565b604080516001600160601b031930606090811b82166020808501919091528d821b83166034850152604884018d9052908e901b90911660688301526001600160c01b031960c08a811b8216607c85015246901b1660848301528251808303606c018152608c909201909252805191012061095e565b6004846006811115610c3257610c326114e8565b1415610d4557826001600160a01b031663c66a9c5a6040518163ffffffff1660e01b815260040160206040518083038186803b158015610c7157600080fd5b505afa158015610c85573d6000803e3d6000fd5b505050506040513d601f19601f82011682018060405250810190610ca99190611b97565b9050610cbf6001600160a01b038a16828a610fcb565b806001600160a01b031663234636248a8a8a8e8b6040518663ffffffff1660e01b8152600401610cf3959493929190611bb4565b602060405180830381600087803b158015610d0d57600080fd5b505af1158015610d21573d6000803e3d6000fd5b505050506040513d601f19601f8201168201806040525081019061095e9190611b1a565b6005846006811115610d5957610d596114e8565b1415610e8857826001600160a01b03166395b12c276040518163ffffffff1660e01b815260040160206040518083038186803b158015610d9857600080fd5b505afa158015610dac573d6000803e3d6000fd5b505050506040513d601f19601f82011682018060405250810190610dd09190611b97565b9050610de66001600160a01b038a16828a610fcb565b806001600160a01b031663a00293018a8a8a8e8b6040518663ffffffff1660e01b8152600401610e1a959493929190611bb4565b602060405180830381600087803b158015610e3457600080fd5b505af1158015610e48573d6000803e3d6000fd5b505050506040513d601f19601f82011682018060405250810190610e6c9190611b1a565b9150610e836001600160a01b038a168260006110f5565b610fa5565b6006846006811115610e9c57610e9c6114e8565b1415610f5d57826001600160a01b03166395b12c276040518163ffffffff1660e01b815260040160206040518083038186803b158015610edb57600080fd5b505afa158015610eef573d6000803e3d6000fd5b505050506040513d601f19601f82011682018060405250810190610f139190611b97565b9050610f296001600160a01b038a16828a610fcb565b806001600160a01b0316639e422c338a8a8a8e8b6040518663ffffffff1660e01b8152600401610e1a959493929190611bb4565b60405162461bcd60e51b815260206004820152601960248201527f6272696467652074797065206e6f7420737570706f7274656400000000000000604482015260640161026c565b9850989650505050505050565b6060610fc18484600085611219565b90505b9392505050565b604051636eb1769f60e11b81523060048201526001600160a01b038381166024830152600091839186169063dd62ed3e9060440160206040518083038186803b15801561101757600080fd5b505afa15801561102b573d6000803e3d6000fd5b505050506040513d601f19601f8201168201806040525081019061104f9190611b1a565b6110599190611bef565b6040516001600160a01b0385166024820152604481018290529091506106aa90859063095ea7b360e01b90606401610673565b6040516001600160601b031930606090811b8216602084015286811b82166034840152604883018690526001600160c01b031960c086811b821660688601529189901b909216607084015283811b8216608484015246901b16608c82015260009060940161061e565b80158061117e5750604051636eb1769f60e11b81523060048201526001600160a01b03838116602483015284169063dd62ed3e9060440160206040518083038186803b15801561114457600080fd5b505afa158015611158573d6000803e3d6000fd5b505050506040513d601f19601f8201168201806040525081019061117c9190611b1a565b155b6111e95760405162461bcd60e51b815260206004820152603660248201527f5361666545524332303a20617070726f76652066726f6d206e6f6e2d7a65726f60448201527520746f206e6f6e2d7a65726f20616c6c6f77616e636560501b606482015260840161026c565b6040516001600160a01b03831660248201526044810182905261081b90849063095ea7b360e01b90606401610673565b60608247101561127a5760405162461bcd60e51b815260206004820152602660248201527f416464726573733a20696e73756666696369656e742062616c616e636520666f6044820152651c8818d85b1b60d21b606482015260840161026c565b6001600160a01b0385163b6112d15760405162461bcd60e51b815260206004820152601d60248201527f416464726573733a2063616c6c20746f206e6f6e2d636f6e7472616374000000604482015260640161026c565b600080866001600160a01b031685876040516112ed9190611c15565b60006040518083038185875af1925050503d806000811461132a576040519150601f19603f3d011682016040523d82523d6000602084013e61132f565b606091505b509150915061133f82828661134a565b979650505050505050565b60608315611359575081610fc4565b8251156113695782518084602001fd5b8160405162461bcd60e51b815260040161026c9190611b07565b8280548282559060005260206000209081019282156113d8579160200282015b828111156113d857825182546001600160a01b0319166001600160a01b039091161782556020909201916001909101906113a3565b506113e4929150611423565b5090565b8280548282559060005260206000209081019282156113d8579160200282015b828111156113d8578251825591602001919060010190611408565b5b808211156113e45760008155600101611424565b6001600160a01b038116811461144d57600080fd5b50565b803561145b81611438565b919050565b6000806000806060858703121561147657600080fd5b843561148181611438565b93506020850135925060408501356001600160401b03808211156114a457600080fd5b818701915087601f8301126114b857600080fd5b8135818111156114c757600080fd5b8860208285010111156114d957600080fd5b95989497505060200194505050565b634e487b7160e01b600052602160045260246000fd5b602081016003831061152057634e487b7160e01b600052602160045260246000fd5b91905290565b6001600160401b038116811461144d57600080fd5b600080600080600060a0868803121561155357600080fd5b853561155e81611438565b9450602086013561156e81611438565b935060408601359250606086013561158581611526565b9150608086013561159581611526565b809150509295509295909350565b634e487b7160e01b600052604160045260246000fd5b604051608081016001600160401b03811182821017156115db576115db6115a3565b60405290565b604051601f8201601f191681016001600160401b0381118282101715611609576116096115a3565b604052919050565b600080600080600060a0868803121561162957600080fd5b853561163481611438565b945060208681013561164581611438565b945060408701359350606087013561165c81611526565b925060808701356001600160401b038082111561167857600080fd5b818901915089601f83011261168c57600080fd5b81358181111561169e5761169e6115a3565b6116b0601f8201601f191685016115e1565b91508082528a848285010111156116c657600080fd5b80848401858401376000848284010152508093505050509295509295909350565b6000602082840312156116f957600080fd5b5035919050565b60005b8381101561171b578181015183820152602001611703565b838111156106aa5750506000910152565b60008151808452611744816020860160208601611700565b601f01601f19169290920160200192915050565b828152604060208201526000610fc1604083018461172c565b600080600080600080600060e0888a03121561178c57600080fd5b873561179781611438565b965060208801356117a781611438565b95506040880135945060608801356117be81611526565b935060808801356117ce81611526565b925060a088013563ffffffff811681146117e757600080fd5b8092505060c0880135905092959891949750929550565b60006001600160401b03821115611817576118176115a3565b5060051b60200190565b600082601f83011261183257600080fd5b81356020611847611842836117fe565b6115e1565b82815260059290921b8401810191818101908684111561186657600080fd5b8286015b84811015611881578035835291830191830161186a565b509695505050505050565b6000602080838503121561189f57600080fd5b82356001600160401b03808211156118b657600080fd5b90840190608082870312156118ca57600080fd5b6118d26115b9565b82356118dd81611526565b815282840135828111156118f057600080fd5b8301601f8101881361190157600080fd5b803561190f611842826117fe565b81815260059190911b8201860190868101908a83111561192e57600080fd5b928701925b8284101561195557833561194681611438565b82529287019290870190611933565b808886015250505050604083013593508184111561197257600080fd5b61197e87858501611821565b604082015261198f60608401611450565b60608201529695505050505050565b805161145b81611438565b600082601f8301126119ba57600080fd5b815160206119ca611842836117fe565b82815260059290921b840181019181810190868411156119e957600080fd5b8286015b8481101561188157805183529183019183016119ed565b60006020808385031215611a1757600080fd5b82516001600160401b0380821115611a2e57600080fd5b9084019060808287031215611a4257600080fd5b611a4a6115b9565b8251611a5581611526565b81528284015182811115611a6857600080fd5b8301601f81018813611a7957600080fd5b8051611a87611842826117fe565b81815260059190911b8201860190868101908a831115611aa657600080fd5b928701925b82841015611acd578351611abe81611438565b82529287019290870190611aab565b8088860152505050506040830151935081841115611aea57600080fd5b611af6878585016119a9565b604082015261198f6060840161199e565b602081526000610fc4602083018461172c565b600060208284031215611b2c57600080fd5b5051919050565b6001600160a01b0386811682526001600160401b0386166020830152841660408201526060810183905260a06080820181905260009061133f9083018461172c565b600060208284031215611b8757600080fd5b81518015158114610fc457600080fd5b600060208284031215611ba957600080fd5b8151610fc481611438565b6001600160a01b03958616815260208101949094526001600160401b0392831660408501529316606083015291909116608082015260a00190565b60008219821115611c1057634e487b7160e01b600052601160045260246000fd5b500190565b60008251611c27818460208701611700565b919091019291505056fea26469706673582212202538edae69d6c862ede8a5e802f63c4c7affdf97067eaf1c29aea8762470381d64736f6c63430008090033",
  "devdoc": {
    "kind": "dev",
    "methods": {
      "getLiquidityTransferId(address,address,uint256,uint64,uint64)": {
        "details": "only callstatic"
      }
    },
    "version": 1
  },
  "userdoc": {
    "kind": "user",
    "methods": {},
    "version": 1
  },
  "storageLayout": {
    "storage": [
      {
        "astId": 756,
        "contract": "contracts/Sender.sol:Sender",
        "label": "transfer",
        "offset": 0,
        "slot": "0",
        "type": "t_struct(TransferRequest)851_storage"
      },
      {
        "astId": 792,
        "contract": "contracts/Sender.sol:Sender",
        "label": "transfer2",
        "offset": 0,
        "slot": "4",
        "type": "t_struct(TransferRequest)851_storage"
      }
    ],
    "types": {
      "t_address": {
        "encoding": "inplace",
        "label": "address",
        "numberOfBytes": "20"
      },
      "t_array(t_address)dyn_storage": {
        "base": "t_address",
        "encoding": "dynamic_array",
        "label": "address[]",
        "numberOfBytes": "32"
      },
      "t_array(t_uint256)dyn_storage": {
        "base": "t_uint256",
        "encoding": "dynamic_array",
        "label": "uint256[]",
        "numberOfBytes": "32"
      },
      "t_struct(TransferRequest)851_storage": {
        "encoding": "inplace",
        "label": "struct IBatchTransfer.TransferRequest",
        "members": [
          {
            "astId": 842,
            "contract": "contracts/Sender.sol:Sender",
            "label": "nonce",
            "offset": 0,
            "slot": "0",
            "type": "t_uint64"
          },
          {
            "astId": 845,
            "contract": "contracts/Sender.sol:Sender",
            "label": "accounts",
            "offset": 0,
            "slot": "1",
            "type": "t_array(t_address)dyn_storage"
          },
          {
            "astId": 848,
            "contract": "contracts/Sender.sol:Sender",
            "label": "amounts",
            "offset": 0,
            "slot": "2",
            "type": "t_array(t_uint256)dyn_storage"
          },
          {
            "astId": 850,
            "contract": "contracts/Sender.sol:Sender",
            "label": "sender",
            "offset": 0,
            "slot": "3",
            "type": "t_address"
          }
        ],
        "numberOfBytes": "128"
      },
      "t_uint256": {
        "encoding": "inplace",
        "label": "uint256",
        "numberOfBytes": "32"
      },
      "t_uint64": {
        "encoding": "inplace",
        "label": "uint64",
        "numberOfBytes": "8"
      }
    }
  }
}