{
  "address": "0xBC0ec5b28A574250221478a52afB9D3bc398597f",
  "abi": [
    {
      "inputs": [
        {
          "internalType": "address",
          "name": "_messageBus",
          "type": "address"
        }
      ],
      "stateMutability": "nonpayable",
      "type": "constructor"
    },
    {
      "inputs": [],
      "name": "amount",
      "outputs": [
        {
          "internalType": "uint256",
          "name": "",
          "type": "uint256"
        }
      ],
      "stateMutability": "view",
      "type": "function"
    },
    {
      "inputs": [
        {
          "internalType": "address",
          "name": "_sender",
          "type": "address"
        },
        {
          "internalType": "address",
          "name": "_token",
          "type": "address"
        },
        {
          "internalType": "uint256",
          "name": "_amount",
          "type": "uint256"
        },
        {
          "internalType": "uint64",
          "name": "_srcChainId",
          "type": "uint64"
        },
        {
          "internalType": "bytes",
          "name": "_message",
          "type": "bytes"
        },
        {
          "internalType": "address",
          "name": "_executor",
          "type": "address"
        }
      ],
      "name": "executeMessageWithTransfer",
      "outputs": [
        {
          "internalType": "enum Recipient.ExecutionStatus",
          "name": "",
          "type": "uint8"
        }
      ],
      "stateMutability": "nonpayable",
      "type": "function"
    },
    {
      "inputs": [],
      "name": "executor",
      "outputs": [
        {
          "internalType": "address",
          "name": "",
          "type": "address"
        }
      ],
      "stateMutability": "view",
      "type": "function"
    },
    {
      "inputs": [],
      "name": "getSendMessage",
      "outputs": [
        {
          "internalType": "address",
          "name": "",
          "type": "address"
        },
        {
          "internalType": "address",
          "name": "",
          "type": "address"
        },
        {
          "internalType": "uint256",
          "name": "",
          "type": "uint256"
        },
        {
          "internalType": "uint64",
          "name": "",
          "type": "uint64"
        },
        {
          "internalType": "address",
          "name": "",
          "type": "address"
        },
        {
          "internalType": "uint256",
          "name": "",
          "type": "uint256"
        }
      ],
      "stateMutability": "view",
      "type": "function"
    },
    {
      "inputs": [],
      "name": "messageBus",
      "outputs": [
        {
          "internalType": "address",
          "name": "",
          "type": "address"
        }
      ],
      "stateMutability": "view",
      "type": "function"
    },
    {
      "inputs": [],
      "name": "messagerData",
      "outputs": [
        {
          "internalType": "uint256",
          "name": "",
          "type": "uint256"
        }
      ],
      "stateMutability": "view",
      "type": "function"
    },
    {
      "inputs": [],
      "name": "sender",
      "outputs": [
        {
          "internalType": "address",
          "name": "",
          "type": "address"
        }
      ],
      "stateMutability": "view",
      "type": "function"
    },
    {
      "inputs": [],
      "name": "srcChainId",
      "outputs": [
        {
          "internalType": "uint64",
          "name": "",
          "type": "uint64"
        }
      ],
      "stateMutability": "view",
      "type": "function"
    },
    {
      "inputs": [],
      "name": "token",
      "outputs": [
        {
          "internalType": "address",
          "name": "",
          "type": "address"
        }
      ],
      "stateMutability": "view",
      "type": "function"
    }
  ],
  "transactionHash": "0xaf5ef7c6760aebaec4d091cf65234d1d931e5ad8aa6880f559173376dd526019",
  "args": [
    "0xF25170F86E4291a99a9A560032Fe9948b8BcFBB2"
  ],
  "numDeployments": 1,
  "solcInputHash": "def588e021312d8146027e0ea910e7f7",
  "bytecode": "0x60a060405234801561001057600080fd5b506040516104cc3803806104cc83398101604081905261002f91610040565b6001600160a01b0316608052610070565b60006020828403121561005257600080fd5b81516001600160a01b038116811461006957600080fd5b9392505050565b60805161043a6100926000396000818161018e01526101f3015261043a6000f3fe608060405234801561001057600080fd5b50600436106100935760003560e01c80637cd2bffc116100665780637cd2bffc14610169578063a1a227fa14610189578063aa8c217c146101b0578063c34c08e5146101b9578063fc0c546a146101d357600080fd5b80631607104d1461009857806324b03627146100fa57806349d126051461011157806367e404ce1461013e575b600080fd5b600054600154600254600354600454604080516001600160a01b039687168152948616602086015284019290925267ffffffffffffffff81166060840152600160401b9004909216608082015260a081019190915260c0015b60405180910390f35b61010360045481565b6040519081526020016100f1565b6003546101259067ffffffffffffffff1681565b60405167ffffffffffffffff90911681526020016100f1565b600054610151906001600160a01b031681565b6040516001600160a01b0390911681526020016100f1565b61017c6101773660046102fb565b6101e6565b6040516100f191906103c3565b6101517f000000000000000000000000000000000000000000000000000000000000000081565b61010360025481565b60035461015190600160401b90046001600160a01b031681565b600154610151906001600160a01b031681565b6000336001600160a01b037f000000000000000000000000000000000000000000000000000000000000000016146102645760405162461bcd60e51b815260206004820152601960248201527f63616c6c6572206973206e6f74206d6573736167652062757300000000000000604482015260640160405180910390fd5b600080546001600160a01b03808b166001600160a01b031992831617909255600180548a84169216919091179055600287905560038054918416600160401b026001600160e01b031990921667ffffffffffffffff8816179190911790556102ce838501856103eb565b600455506001979650505050505050565b80356001600160a01b03811681146102f657600080fd5b919050565b600080600080600080600060c0888a03121561031657600080fd5b61031f886102df565b965061032d602089016102df565b955060408801359450606088013567ffffffffffffffff808216821461035257600080fd5b9094506080890135908082111561036857600080fd5b818a0191508a601f83011261037c57600080fd5b81358181111561038b57600080fd5b8b602082850101111561039d57600080fd5b6020830195508094505050506103b560a089016102df565b905092959891949750929550565b60208101600383106103e557634e487b7160e01b600052602160045260246000fd5b91905290565b6000602082840312156103fd57600080fd5b503591905056fea2646970667358221220b6ac3f0bd90a0839c07fd0c89e00dd71d0d6a156dc0f365f554f521f3be8627064736f6c63430008090033",
  "devdoc": {
    "kind": "dev",
    "methods": {},
    "version": 1
  },
  "userdoc": {
    "kind": "user",
    "methods": {},
    "version": 1
  },
  "storageLayout": {
    "storage": [
      {
        "astId": 9,
        "contract": "contracts/Recipient.sol:Recipient",
        "label": "sender",
        "offset": 0,
        "slot": "0",
        "type": "t_address"
      },
      {
        "astId": 11,
        "contract": "contracts/Recipient.sol:Recipient",
        "label": "token",
        "offset": 0,
        "slot": "1",
        "type": "t_address"
      },
      {
        "astId": 13,
        "contract": "contracts/Recipient.sol:Recipient",
        "label": "amount",
        "offset": 0,
        "slot": "2",
        "type": "t_uint256"
      },
      {
        "astId": 15,
        "contract": "contracts/Recipient.sol:Recipient",
        "label": "srcChainId",
        "offset": 0,
        "slot": "3",
        "type": "t_uint64"
      },
      {
        "astId": 17,
        "contract": "contracts/Recipient.sol:Recipient",
        "label": "executor",
        "offset": 8,
        "slot": "3",
        "type": "t_address"
      },
      {
        "astId": 19,
        "contract": "contracts/Recipient.sol:Recipient",
        "label": "messagerData",
        "offset": 0,
        "slot": "4",
        "type": "t_uint256"
      }
    ],
    "types": {
      "t_address": {
        "encoding": "inplace",
        "label": "address",
        "numberOfBytes": "20"
      },
      "t_uint256": {
        "encoding": "inplace",
        "label": "uint256",
        "numberOfBytes": "32"
      },
      "t_uint64": {
        "encoding": "inplace",
        "label": "uint64",
        "numberOfBytes": "8"
      }
    }
  }
}